{
  "contractName": "ETHTornado",
  "abi": [
    {
      "inputs": [
        {
          "internalType": "contract IVerifier",
          "name": "_verifier",
          "type": "address"
        },
        {
          "internalType": "uint256",
          "name": "_denomination",
          "type": "uint256"
        },
        {
          "internalType": "uint32",
          "name": "_merkleTreeHeight",
          "type": "uint32"
        },
        {
          "internalType": "address",
          "name": "_operator",
          "type": "address"
        }
      ],
      "payable": false,
      "stateMutability": "nonpayable",
      "type": "constructor"
    },
    {
      "anonymous": false,
      "inputs": [
        {
          "indexed": true,
          "internalType": "bytes32",
          "name": "commitment",
          "type": "bytes32"
        },
        {
          "indexed": false,
          "internalType": "uint32",
          "name": "leafIndex",
          "type": "uint32"
        },
        {
          "indexed": false,
          "internalType": "uint256",
          "name": "timestamp",
          "type": "uint256"
        }
      ],
      "name": "Deposit",
      "type": "event"
    },
    {
      "anonymous": false,
      "inputs": [
        {
          "indexed": false,
          "internalType": "address",
          "name": "to",
          "type": "address"
        },
        {
          "indexed": false,
          "internalType": "bytes32",
          "name": "nullifierHash",
          "type": "bytes32"
        },
        {
          "indexed": true,
          "internalType": "address",
          "name": "relayer",
          "type": "address"
        },
        {
          "indexed": false,
          "internalType": "uint256",
          "name": "fee",
          "type": "uint256"
        }
      ],
      "name": "Withdrawal",
      "type": "event"
    },
    {
      "constant": true,
      "inputs": [],
      "name": "FIELD_SIZE",
      "outputs": [
        {
          "internalType": "uint256",
          "name": "",
          "type": "uint256"
        }
      ],
      "payable": false,
      "stateMutability": "view",
      "type": "function"
    },
    {
      "constant": true,
      "inputs": [],
      "name": "ROOT_HISTORY_SIZE",
      "outputs": [
        {
          "internalType": "uint32",
          "name": "",
          "type": "uint32"
        }
      ],
      "payable": false,
      "stateMutability": "view",
      "type": "function"
    },
    {
      "constant": true,
      "inputs": [],
      "name": "ZERO_VALUE",
      "outputs": [
        {
          "internalType": "uint256",
          "name": "",
          "type": "uint256"
        }
      ],
      "payable": false,
      "stateMutability": "view",
      "type": "function"
    },
    {
      "constant": false,
      "inputs": [
        {
          "internalType": "address",
          "name": "_newOperator",
          "type": "address"
        }
      ],
      "name": "changeOperator",
      "outputs": [],
      "payable": false,
      "stateMutability": "nonpayable",
      "type": "function"
    },
    {
      "constant": true,
      "inputs": [
        {
          "internalType": "bytes32",
          "name": "",
          "type": "bytes32"
        }
      ],
      "name": "commitments",
      "outputs": [
        {
          "internalType": "bool",
          "name": "",
          "type": "bool"
        }
      ],
      "payable": false,
      "stateMutability": "view",
      "type": "function"
    },
    {
      "constant": true,
      "inputs": [],
      "name": "currentRootIndex",
      "outputs": [
        {
          "internalType": "uint32",
          "name": "",
          "type": "uint32"
        }
      ],
      "payable": false,
      "stateMutability": "view",
      "type": "function"
    },
    {
      "constant": true,
      "inputs": [],
      "name": "denomination",
      "outputs": [
        {
          "internalType": "uint256",
          "name": "",
          "type": "uint256"
        }
      ],
      "payable": false,
      "stateMutability": "view",
      "type": "function"
    },
    {
      "constant": false,
      "inputs": [
        {
          "internalType": "bytes32",
          "name": "_commitment",
          "type": "bytes32"
        }
      ],
      "name": "deposit",
      "outputs": [],
      "payable": true,
      "stateMutability": "payable",
      "type": "function"
    },
    {
      "constant": true,
      "inputs": [
        {
          "internalType": "uint256",
          "name": "",
          "type": "uint256"
        }
      ],
      "name": "filledSubtrees",
      "outputs": [
        {
          "internalType": "bytes32",
          "name": "",
          "type": "bytes32"
        }
      ],
      "payable": false,
      "stateMutability": "view",
      "type": "function"
    },
    {
      "constant": true,
      "inputs": [],
      "name": "getLastRoot",
      "outputs": [
        {
          "internalType": "bytes32",
          "name": "",
          "type": "bytes32"
        }
      ],
      "payable": false,
      "stateMutability": "view",
      "type": "function"
    },
    {
      "constant": true,
      "inputs": [
        {
          "internalType": "bytes32",
          "name": "_left",
          "type": "bytes32"
        },
        {
          "internalType": "bytes32",
          "name": "_right",
          "type": "bytes32"
        }
      ],
      "name": "hashLeftRight",
      "outputs": [
        {
          "internalType": "bytes32",
          "name": "",
          "type": "bytes32"
        }
      ],
      "payable": false,
      "stateMutability": "pure",
      "type": "function"
    },
    {
      "constant": true,
      "inputs": [
        {
          "internalType": "bytes32",
          "name": "_root",
          "type": "bytes32"
        }
      ],
      "name": "isKnownRoot",
      "outputs": [
        {
          "internalType": "bool",
          "name": "",
          "type": "bool"
        }
      ],
      "payable": false,
      "stateMutability": "view",
      "type": "function"
    },
    {
      "constant": true,
      "inputs": [
        {
          "internalType": "bytes32",
          "name": "_nullifierHash",
          "type": "bytes32"
        }
      ],
      "name": "isSpent",
      "outputs": [
        {
          "internalType": "bool",
          "name": "",
          "type": "bool"
        }
      ],
      "payable": false,
      "stateMutability": "view",
      "type": "function"
    },
    {
      "constant": true,
      "inputs": [
        {
          "internalType": "bytes32[]",
          "name": "_nullifierHashes",
          "type": "bytes32[]"
        }
      ],
      "name": "isSpentArray",
      "outputs": [
        {
          "internalType": "bool[]",
          "name": "spent",
          "type": "bool[]"
        }
      ],
      "payable": false,
      "stateMutability": "view",
      "type": "function"
    },
    {
      "constant": true,
      "inputs": [],
      "name": "levels",
      "outputs": [
        {
          "internalType": "uint32",
          "name": "",
          "type": "uint32"
        }
      ],
      "payable": false,
      "stateMutability": "view",
      "type": "function"
    },
    {
      "constant": true,
      "inputs": [],
      "name": "nextIndex",
      "outputs": [
        {
          "internalType": "uint32",
          "name": "",
          "type": "uint32"
        }
      ],
      "payable": false,
      "stateMutability": "view",
      "type": "function"
    },
    {
      "constant": true,
      "inputs": [
        {
          "internalType": "bytes32",
          "name": "",
          "type": "bytes32"
        }
      ],
      "name": "nullifierHashes",
      "outputs": [
        {
          "internalType": "bool",
          "name": "",
          "type": "bool"
        }
      ],
      "payable": false,
      "stateMutability": "view",
      "type": "function"
    },
    {
      "constant": true,
      "inputs": [],
      "name": "operator",
      "outputs": [
        {
          "internalType": "address",
          "name": "",
          "type": "address"
        }
      ],
      "payable": false,
      "stateMutability": "view",
      "type": "function"
    },
    {
      "constant": true,
      "inputs": [
        {
          "internalType": "uint256",
          "name": "",
          "type": "uint256"
        }
      ],
      "name": "roots",
      "outputs": [
        {
          "internalType": "bytes32",
          "name": "",
          "type": "bytes32"
        }
      ],
      "payable": false,
      "stateMutability": "view",
      "type": "function"
    },
    {
      "constant": false,
      "inputs": [
        {
          "internalType": "address",
          "name": "_newVerifier",
          "type": "address"
        }
      ],
      "name": "updateVerifier",
      "outputs": [],
      "payable": false,
      "stateMutability": "nonpayable",
      "type": "function"
    },
    {
      "constant": true,
      "inputs": [],
      "name": "verifier",
      "outputs": [
        {
          "internalType": "contract IVerifier",
          "name": "",
          "type": "address"
        }
      ],
      "payable": false,
      "stateMutability": "view",
      "type": "function"
    },
    {
      "constant": false,
      "inputs": [
        {
          "internalType": "bytes",
          "name": "_proof",
          "type": "bytes"
        },
        {
          "internalType": "bytes32",
          "name": "_root",
          "type": "bytes32"
        },
        {
          "internalType": "bytes32",
          "name": "_nullifierHash",
          "type": "bytes32"
        },
        {
          "internalType": "address payable",
          "name": "_recipient",
          "type": "address"
        },
        {
          "internalType": "address payable",
          "name": "_relayer",
          "type": "address"
        },
        {
          "internalType": "uint256",
          "name": "_fee",
          "type": "uint256"
        },
        {
          "internalType": "uint256",
          "name": "_refund",
          "type": "uint256"
        }
      ],
      "name": "withdraw",
      "outputs": [],
      "payable": true,
      "stateMutability": "payable",
      "type": "function"
    },
    {
      "constant": true,
      "inputs": [
        {
          "internalType": "uint256",
          "name": "",
          "type": "uint256"
        }
      ],
      "name": "zeros",
      "outputs": [
        {
          "internalType": "bytes32",
          "name": "",
          "type": "bytes32"
        }
      ],
      "payable": false,
      "stateMutability": "view",
      "type": "function"
    }
  ],
  "bytecode": "0x6080604052600380546001600160401b03191690553480156200002157600080fd5b50604051620019cc380380620019cc833981810160405260808110156200004757600080fd5b5080516020820151604083015160609093015191929091838383838163ffffffff8116620000a75760405162461bcd60e51b8152600401808060200182810382526027815260200180620019436027913960400191505060405180910390fd5b60208163ffffffff1610620000ee5760405162461bcd60e51b81526004018080602001828103825260228152602001806200198a6022913960400191505060405180910390fd5b6000805463ffffffff191663ffffffff83161781556002805460018181019092557f2fe54c60d3acabf3343a35b6eba15db4821b340f76e741e2249685ed4899af6c600080516020620019028339815191529091018190558154808301835592829052600080516020620019ac8339815191529092018290555b60005463ffffffff9081169082161015620001dc576200019282806001600160e01b036200028116565b6002805460018181019092556000805160206200190283398151915201829055805480820182556000829052600080516020620019ac833981519152018290559092500162000168565b50620001f281806001600160e01b036200028116565b60046000015550506068805460ff1916600117905582620002455760405162461bcd60e51b8152600401808060200182810382526025815260200180620018dd6025913960400191505060405180910390fd5b606c80546001600160a01b039586166001600160a01b031991821617909155606d805492909516911617909255606955506200046e9350505050565b60006000805160206200196a8339815191528310620002e7576040805162461bcd60e51b815260206004820181905260248201527f5f6c6566742073686f756c6420626520696e7369646520746865206669656c64604482015290519081900360640190fd5b6000805160206200196a8339815191528210620003365760405162461bcd60e51b8152600401808060200182810382526021815260200180620019226021913960400191505060405180910390fd5b6040805163f47d33b560e01b81526004810185905260006024820181905282518693919273__Hasher________________________________9263f47d33b592604480840193829003018186803b1580156200039157600080fd5b505af4158015620003a6573d6000803e3d6000fd5b505050506040513d6040811015620003bd57600080fd5b50805160209091015190925090506000805160206200196a833981519152848308915073__Hasher________________________________63f47d33b583836040518363ffffffff1660e01b81526004018083815260200182815260200192505050604080518083038186803b1580156200043757600080fd5b505af41580156200044c573d6000803e3d6000fd5b505050506040513d60408110156200046357600080fd5b505195945050505050565b61145f806200047e6000396000f3fe6080604052600436106101405760003560e01c806390eeb02b116100b6578063cd87a3b41161006f578063cd87a3b4146104f4578063e5285dcc14610509578063e829558814610533578063ec7329591461055d578063f178e47c14610572578063fc7e9c6f1461059c57610140565b806390eeb02b1461038557806397fc007c1461039a5780639fa12d0b146103cd578063b214faa514610498578063ba70f757146104b5578063c2b40ae4146104ca57610140565b8063414a37ba11610108578063414a37ba146102c45780634ecf518b146102d9578063570ca735146103075780636d9833e31461031c578063839df945146103465780638bca6d161461037057610140565b806306394c9b1461014557806317cc915c1461017a57806321a0adb6146101b85780632b7ac3f31461025157806338bf282e14610282575b600080fd5b34801561015157600080fd5b506101786004803603602081101561016857600080fd5b50356001600160a01b03166105b1565b005b34801561018657600080fd5b506101a46004803603602081101561019d57600080fd5b503561061c565b604080519115158252519081900360200190f35b610178600480360360e08110156101ce57600080fd5b810190602081018135600160201b8111156101e857600080fd5b8201836020820111156101fa57600080fd5b803590602001918460018302840111600160201b8311171561021b57600080fd5b91935091508035906020810135906001600160a01b03604082013581169160608101359091169060808101359060a00135610631565b34801561025d57600080fd5b5061026661097e565b604080516001600160a01b039092168252519081900360200190f35b34801561028e57600080fd5b506102b2600480360360408110156102a557600080fd5b508035906020013561098d565b60408051918252519081900360200190f35b3480156102d057600080fd5b506102b2610b6e565b3480156102e557600080fd5b506102ee610b80565b6040805163ffffffff9092168252519081900360200190f35b34801561031357600080fd5b50610266610b8c565b34801561032857600080fd5b506101a46004803603602081101561033f57600080fd5b5035610b9b565b34801561035257600080fd5b506101a46004803603602081101561036957600080fd5b5035610c0e565b34801561037c57600080fd5b506102b2610c23565b34801561039157600080fd5b506102ee610c29565b3480156103a657600080fd5b50610178600480360360208110156103bd57600080fd5b50356001600160a01b0316610c35565b3480156103d957600080fd5b50610448600480360360208110156103f057600080fd5b810190602081018135600160201b81111561040a57600080fd5b82018360208201111561041c57600080fd5b803590602001918460208302840111600160201b8311171561043d57600080fd5b509092509050610ca0565b60408051602080825283518183015283519192839290830191858101910280838360005b8381101561048457818101518382015260200161046c565b505050509050019250505060405180910390f35b610178600480360360208110156104ae57600080fd5b5035610d28565b3480156104c157600080fd5b506102b2610e55565b3480156104d657600080fd5b506102b2600480360360208110156104ed57600080fd5b5035610e75565b34801561050057600080fd5b506102ee610e89565b34801561051557600080fd5b506101a46004803603602081101561052c57600080fd5b5035610e8e565b34801561053f57600080fd5b506102b26004803603602081101561055657600080fd5b5035610ea3565b34801561056957600080fd5b506102b2610ec1565b34801561057e57600080fd5b506102b26004803603602081101561059557600080fd5b5035610ee5565b3480156105a857600080fd5b506102ee610ef2565b606d546001600160a01b031633146105fa5760405162461bcd60e51b81526004018080602001828103825260258152602001806113d16025913960400191505060405180910390fd5b606d80546001600160a01b0319166001600160a01b0392909216919091179055565b606a6020526000908152604090205460ff1681565b60685460ff16610688576040805162461bcd60e51b815260206004820152601f60248201527f5265656e7472616e637947756172643a207265656e7472616e742063616c6c00604482015290519081900360640190fd5b6068805460ff191690556069548211156106e9576040805162461bcd60e51b815260206004820152601a60248201527f4665652065786365656473207472616e736665722076616c7565000000000000604482015290519081900360640190fd5b6000858152606a602052604090205460ff161561074d576040805162461bcd60e51b815260206004820152601f60248201527f546865206e6f746520686173206265656e20616c7265616479207370656e7400604482015290519081900360640190fd5b61075686610b9b565b6107a7576040805162461bcd60e51b815260206004820152601c60248201527f43616e6e6f742066696e6420796f7572206d65726b6c6520726f6f7400000000604482015290519081900360640190fd5b606c546040805160c08082018352898252602082018990526001600160a01b038881168385015287811660608401526080830187905260a08301869052925163695ef6f960e01b8152929093169263695ef6f9928c928c9290916004810191829160240190849080838360005b8381101561082c578181015183820152602001610814565b505050509050018281038252858582818152602001925080828437600081840152601f19601f820116905080830192505050945050505050602060405180830381600087803b15801561087e57600080fd5b505af1158015610892573d6000803e3d6000fd5b505050506040513d60208110156108a857600080fd5b50516108f4576040805162461bcd60e51b815260206004820152601660248201527524b73b30b634b2103bb4ba34323930bb90383937b7b360511b604482015290519081900360640190fd5b6000858152606a60205260409020805460ff1916600117905561091984848484610f05565b604080516001600160a01b038681168252602082018890528183018590529151918516917fe9e508bad6d4c3227e881ca19068f099da81b5164dd6d62b2eaf1e8bc6c349319181900360600190a250506068805460ff19166001179055505050505050565b606c546001600160a01b031681565b600060008051602061134883398151915283106109f1576040805162461bcd60e51b815260206004820181905260248201527f5f6c6566742073686f756c6420626520696e7369646520746865206669656c64604482015290519081900360640190fd5b6000805160206113488339815191528210610a3d5760405162461bcd60e51b81526004018080602001828103825260218152602001806112f36021913960400191505060405180910390fd5b6040805163f47d33b560e01b81526004810185905260006024820181905282518693919273__Hasher________________________________9263f47d33b592604480840193829003018186803b158015610a9757600080fd5b505af4158015610aab573d6000803e3d6000fd5b505050506040513d6040811015610ac157600080fd5b5080516020909101519092509050600080516020611348833981519152848308915073__Hasher________________________________63f47d33b583836040518363ffffffff1660e01b81526004018083815260200182815260200192505050604080518083038186803b158015610b3957600080fd5b505af4158015610b4d573d6000803e3d6000fd5b505050506040513d6040811015610b6357600080fd5b505195945050505050565b60008051602061134883398151915281565b60005463ffffffff1681565b606d546001600160a01b031681565b600081610baa57506000610c09565b60035463ffffffff165b60048163ffffffff1660648110610bc757fe5b0154831415610bda576001915050610c09565b63ffffffff8116610be9575060645b6003546000199091019063ffffffff80831691161415610bb45760009150505b919050565b606b6020526000908152604090205460ff1681565b60695481565b60035463ffffffff1681565b606d546001600160a01b03163314610c7e5760405162461bcd60e51b81526004018080602001828103825260258152602001806113d16025913960400191505060405180910390fd5b606c80546001600160a01b0319166001600160a01b0392909216919091179055565b604080518281526020808402820101909152606090828015610ccc578160200160208202803883390190505b50905060005b82811015610d2157610cf5848483818110610ce957fe5b90506020020135610e8e565b15610d19576001828281518110610d0857fe5b911515602092830291909101909101525b600101610cd2565b5092915050565b60685460ff16610d7f576040805162461bcd60e51b815260206004820152601f60248201527f5265656e7472616e637947756172643a207265656e7472616e742063616c6c00604482015290519081900360640190fd5b6068805460ff191690556000818152606b602052604090205460ff1615610dd75760405162461bcd60e51b81526004018080602001828103825260218152602001806113686021913960400191505060405180910390fd5b6000610de2826110b2565b6000838152606b60205260409020805460ff191660011790559050610e05611249565b6040805163ffffffff83168152426020820152815184927fa945e51eec50ab98c161376f0db4cf2aeba3ec92755fe2fcd388bdbbb80ff196928290030190a250506068805460ff19166001179055565b60035460009060049063ffffffff1660648110610e6e57fe5b0154905090565b60048160648110610e8257fe5b0154905081565b606481565b6000908152606a602052604090205460ff1690565b60028181548110610eb057fe5b600091825260209091200154905081565b7f2fe54c60d3acabf3343a35b6eba15db4821b340f76e741e2249685ed4899af6c81565b60018181548110610eb057fe5b600354600160201b900463ffffffff1681565b3415610f425760405162461bcd60e51b81526004018080602001828103825260358152602001806113f66035913960400191505060405180910390fd5b8015610f7f5760405162461bcd60e51b81526004018080602001828103825260348152602001806113146034913960400191505060405180910390fd5b6069546040516000916001600160a01b0387169190859003908381818185875af1925050503d8060008114610fd0576040519150601f19603f3d011682016040523d82523d6000602084013e610fd5565b606091505b50509050806110155760405162461bcd60e51b81526004018080602001828103825260258152602001806113896025913960400191505060405180910390fd5b82156110ab576040516001600160a01b038516908490600081818185875af1925050503d8060008114611064576040519150601f19603f3d011682016040523d82523d6000602084013e611069565b606091505b505080915050806110ab5760405162461bcd60e51b81526004018080602001828103825260238152602001806113ae6023913960400191505060405180910390fd5b5050505050565b60035460008054909163ffffffff600160201b909104811691811660020a1681141561110f5760405162461bcd60e51b815260040180806020018281038252602f81526020018061128c602f913960400191505060405180910390fd5b6003805463ffffffff600160201b80830482166001019091160267ffffffff000000001990911617905582600080805b60005463ffffffff90811690821610156111e757600185166111a35783925060028163ffffffff168154811061117157fe5b906000526020600020015491508360018263ffffffff168154811061119257fe5b6000918252602090912001556111c7565b60018163ffffffff16815481106111b657fe5b906000526020600020015492508391505b6111d1838361098d565b9350600263ffffffff861604945060010161113f565b5060035460649063ffffffff908116600101166003805463ffffffff19169290910663ffffffff90811692909217908190558491600491166064811061122957fe5b01555050600354600160201b900463ffffffff1660001901949350505050565b60695434146112895760405162461bcd60e51b81526004018080602001828103825260388152602001806112bb6038913960400191505060405180910390fd5b56fe4d65726b6c6520747265652069732066756c6c2e204e6f206d6f7265206c656166732063616e206265206164646564506c656173652073656e6420606d697844656e6f6d696e6174696f6e602045544820616c6f6e672077697468207472616e73616374696f6e5f72696768742073686f756c6420626520696e7369646520746865206669656c64526566756e642076616c756520697320737570706f73656420746f206265207a65726f20666f722045544820696e7374616e636530644e72e131a029b85045b68181585d2833e84879b9709143e1f593f000000154686520636f6d6d69746d656e7420686173206265656e207375626d69747465647061796d656e7420746f205f726563697069656e7420646964206e6f7420676f20746872757061796d656e7420746f205f72656c6179657220646964206e6f7420676f20746872754f6e6c79206f70657261746f722063616e2063616c6c20746869732066756e6374696f6e2e4d6573736167652076616c756520697320737570706f73656420746f206265207a65726f20666f722045544820696e7374616e6365a265627a7a72315820f67c5018c503d6b298a908bb967c8a87c8418550044491dd74bfb6cace9252d864736f6c6343000511003264656e6f6d696e6174696f6e2073686f756c642062652067726561746572207468616e2030405787fa12a823e0f2b7631cc41b3ba8828b3321ca811111fa75cd3aa3bb5ace5f72696768742073686f756c6420626520696e7369646520746865206669656c645f747265654c6576656c732073686f756c642062652067726561746572207468616e207a65726f30644e72e131a029b85045b68181585d2833e84879b9709143e1f593f00000015f747265654c6576656c732073686f756c64206265206c657373207468616e203332b10e2d527612073b26eecdfd717e6a320cf44b4afac2b0732d9fcbe2b7fa0cf6",
  "source": "// https://tornado.cash\n/*\n* d888888P                                           dP              a88888b.                   dP\n*    88                                              88             d8'   `88                   88\n*    88    .d8888b. 88d888b. 88d888b. .d8888b. .d888b88 .d8888b.    88        .d8888b. .d8888b. 88d888b.\n*    88    88'  `88 88'  `88 88'  `88 88'  `88 88'  `88 88'  `88    88        88'  `88 Y8ooooo. 88'  `88\n*    88    88.  .88 88       88    88 88.  .88 88.  .88 88.  .88 dP Y8.   .88 88.  .88       88 88    88\n*    dP    `88888P' dP       dP    dP `88888P8 `88888P8 `88888P' 88  Y88888P' `88888P8 `88888P' dP    dP\n* ooooooooooooooooooooooooooooooooooooooooooooooooooooooooooooooooooooooooooooooooooooooooooooooooooooooo\n*/\n\npragma solidity 0.5.17;\n\nimport \"./Tornado.sol\";\n\ncontract ETHTornado is Tornado {\n  constructor(\n    IVerifier _verifier,\n    uint256 _denomination,\n    uint32 _merkleTreeHeight,\n    address _operator\n  ) Tornado(_verifier, _denomination, _merkleTreeHeight, _operator) public {\n  }\n\n  function _processDeposit() internal {\n    require(msg.value == denomination, \"Please send `mixDenomination` ETH along with transaction\");\n  }\n\n  function _processWithdraw(address payable _recipient, address payable _relayer, uint256 _fee, uint256 _refund) internal {\n    // sanity checks\n    require(msg.value == 0, \"Message value is supposed to be zero for ETH instance\");\n    require(_refund == 0, \"Refund value is supposed to be zero for ETH instance\");\n\n    (bool success, ) = _recipient.call.value(denomination - _fee)(\"\");\n    require(success, \"payment to _recipient did not go thru\");\n    if (_fee > 0) {\n      (success, ) = _relayer.call.value(_fee)(\"\");\n      require(success, \"payment to _relayer did not go thru\");\n    }\n  }\n}\n",
  "sourcePath": "/Users/macbookpro/go/src/github.com/tenderly/mortar-tenderly/example/tornado_core/contracts/ETHTornado.sol",
  "compiler": {
    "name": "solc",
    "version": "0.5.17+commit.d19bba13.Emscripten.clang"
  },
  "schemaVersion": "3.3.3",
  "updatedAt": "2021-01-21T14:21:34.805Z",
  "devdoc": {
    "methods": {
      "changeOperator(address)": {
        "details": "operator can change his address "
      },
      "deposit(bytes32)": {
        "details": "Deposit funds into the contract. The caller must send (for ETH) or approve (for ERC20) value equal to or `denomination` of this instance.",
        "params": {
          "_commitment": "the note commitment, which is PedersenHash(nullifier + secret)"
        }
      },
      "getLastRoot()": {
        "details": "Returns the last root"
      },
      "hashLeftRight(bytes32,bytes32)": {
        "details": "Hash 2 tree leaves, returns MiMC(_left, _right)"
      },
      "isKnownRoot(bytes32)": {
        "details": "Whether the root is present in the root history"
      },
      "isSpent(bytes32)": {
        "details": "whether a note is already spent "
      },
      "isSpentArray(bytes32[])": {
        "details": "whether an array of notes is already spent "
      },
      "updateVerifier(address)": {
        "details": "allow operator to update SNARK verification keys. This is needed to update keys after the final trusted setup ceremony is held. After that operator rights are supposed to be transferred to zero address"
      },
      "withdraw(bytes,bytes32,bytes32,address,address,uint256,uint256)": {
        "details": "Withdraw a deposit from the contract. `proof` is a zkSNARK proof data, and input is an array of circuit public inputs `input` array consists of: - merkle root of all deposits in the contract - hash of unique deposit nullifier to prevent double spends - the recipient of funds - optional fee that goes to the transaction sender (usually a relay)"
      }
    }
  },
  "userdoc": {
    "methods": {}
  }
}