{
  "_format": "hh-sol-artifact-1",
  "contractName": "Example",
  "sourceName": "contracts/Example.sol",
  "abi": [
    {
      "inputs": [
        {
          "internalType": "int256",
          "name": "a",
          "type": "int256"
        },
        {
          "internalType": "string",
          "name": "b",
          "type": "string"
        },
        {
          "internalType": "uint256",
          "name": "c",
          "type": "uint256"
        },
        {
          "internalType": "bytes",
          "name": "d",
          "type": "bytes"
        },
        {
          "internalType": "bool",
          "name": "e",
          "type": "bool"
        },
        {
          "internalType": "uint256",
          "name": "f",
          "type": "uint256"
        },
        {
          "internalType": "address",
          "name": "g",
          "type": "address"
        }
      ],
      "stateMutability": "nonpayable",
      "type": "constructor"
    },
    {
      "inputs": [],
      "name": "getExample",
      "outputs": [
        {
          "internalType": "uint256",
          "name": "",
          "type": "uint256"
        }
      ],
      "stateMutability": "view",
      "type": "function"
    },
    {
      "inputs": [],
      "name": "hello",
      "outputs": [
        {
          "internalType": "string",
          "name": "",
          "type": "string"
        }
      ],
      "stateMutability": "pure",
      "type": "function"
    },
    {
      "inputs": [
        {
          "internalType": "uint256",
          "name": "_example",
          "type": "uint256"
        }
      ],
      "name": "setExample",
      "outputs": [
        {
          "internalType": "bool",
          "name": "",
          "type": "bool"
        }
      ],
      "stateMutability": "nonpayable",
      "type": "function"
    }
  ],
  "bytecode": "0x608060405234801561001057600080fd5b506040516106453803806106458339818101604052810190610032919061013a565b5050505050505061037c565b60008151905061004d81610320565b92915050565b60008151905061006281610337565b92915050565b600082601f83011261007957600080fd5b815161008c61008782610239565b610208565b915080825260208301602083018583830111156100a857600080fd5b6100b38382846102eb565b50505092915050565b6000815190506100cb8161034e565b92915050565b600082601f8301126100e257600080fd5b81516100f56100f082610269565b610208565b9150808252602083016020830185838301111561011157600080fd5b61011c8382846102eb565b50505092915050565b60008151905061013481610365565b92915050565b600080600080600080600060e0888a03121561015557600080fd5b60006101638a828b016100bc565b975050602088015167ffffffffffffffff81111561018057600080fd5b61018c8a828b016100d1565b965050604061019d8a828b01610125565b955050606088015167ffffffffffffffff8111156101ba57600080fd5b6101c68a828b01610068565b94505060806101d78a828b01610053565b93505060a06101e88a828b01610125565b92505060c06101f98a828b0161003e565b91505092959891949750929550565b6000604051905081810181811067ffffffffffffffff8211171561022f5761022e61031e565b5b8060405250919050565b600067ffffffffffffffff8211156102545761025361031e565b5b601f19601f8301169050602081019050919050565b600067ffffffffffffffff8211156102845761028361031e565b5b601f19601f8301169050602081019050919050565b60006102a4826102c1565b9050919050565b60008115159050919050565b6000819050919050565b600073ffffffffffffffffffffffffffffffffffffffff82169050919050565b6000819050919050565b60005b838110156103095780820151818401526020810190506102ee565b83811115610318576000848401525b50505050565bfe5b61032981610299565b811461033457600080fd5b50565b610340816102ab565b811461034b57600080fd5b50565b610357816102b7565b811461036257600080fd5b50565b61036e816102e1565b811461037957600080fd5b50565b6102ba8061038b6000396000f3fe608060405234801561001057600080fd5b50600436106100415760003560e01c806319ff1d21146100465780637254ef5b14610064578063bfdb629c14610094575b600080fd5b61004e6100b2565b60405161005b91906101ba565b60405180910390f35b61007e6004803603810190610079919061011f565b6100ef565b60405161008b919061019f565b60405180910390f35b61009c610101565b6040516100a991906101dc565b60405180910390f35b60606040518060400160405280600581526020017f68656c6c6f000000000000000000000000000000000000000000000000000000815250905090565b60008160008190555060019050919050565b60008054905090565b6000813590506101198161026d565b92915050565b60006020828403121561013157600080fd5b600061013f8482850161010a565b91505092915050565b61015181610213565b82525050565b6000610162826101f7565b61016c8185610202565b935061017c818560208601610229565b6101858161025c565b840191505092915050565b6101998161021f565b82525050565b60006020820190506101b46000830184610148565b92915050565b600060208201905081810360008301526101d48184610157565b905092915050565b60006020820190506101f16000830184610190565b92915050565b600081519050919050565b600082825260208201905092915050565b60008115159050919050565b6000819050919050565b60005b8381101561024757808201518184015260208101905061022c565b83811115610256576000848401525b50505050565b6000601f19601f8301169050919050565b6102768161021f565b811461028157600080fd5b5056fea2646970667358221220bc6e281cee96239aad598ec933f0f73ae4744492d830dc95b6188b66d4e60e6764736f6c63430007030033",
  "linkReferences": {},
  "deployedLinkReferences": {}
}