{
  "_format": "hh-sol-artifact-1",
  "contractName": "SecondExample",
  "sourceName": "contracts/SecondExample.sol",
  "abi": [
    {
      "inputs": [],
      "stateMutability": "nonpayable",
      "type": "constructor"
    },
    {
      "inputs": [],
      "name": "hello",
      "outputs": [
        {
          "internalType": "string",
          "name": "",
          "type": "string"
        }
      ],
      "stateMutability": "pure",
      "type": "function"
    }
  ],
  "bytecode": "0x608060405234801561001057600080fd5b5061011e806100206000396000f3fe6080604052348015600f57600080fd5b506004361060285760003560e01c806319ff1d2114602d575b600080fd5b603360ab565b6040518080602001828103825283818151815260200191508051906020019080838360005b8381101560715780820151818401526020810190506058565b50505050905090810190601f168015609d5780820380516001836020036101000a031916815260200191505b509250505060405180910390f35b60606040518060400160405280600581526020017f68656c6c6f00000000000000000000000000000000000000000000000000000081525090509056fea2646970667358221220a9e37b8dcc9879c87177fa6bd2d681ba3313988a1f1503c70219a3d587b1e2dc64736f6c63430007030033",
  "linkReferences": {},
  "deployedLinkReferences": {}
}