{
  "contracts/Verifier.sol": {
    "Verifier": {
      "abi": [
        {
          "constant": true,
          "inputs": [
            {
              "internalType": "bytes",
              "name": "proof",
              "type": "bytes"
            },
            {
              "internalType": "uint256[6]",
              "name": "inputs",
              "type": "uint256[6]"
            }
          ],
          "name": "verifyProof",
          "outputs": [
            {
              "internalType": "bool",
              "name": "r",
              "type": "bool"
            }
          ],
          "payable": false,
          "stateMutability": "view",
          "type": "function"
        },
        {
          "constant": true,
          "inputs": [
            {
              "internalType": "uint256[2]",
              "name": "a",
              "type": "uint256[2]"
            },
            {
              "internalType": "uint256[2][2]",
              "name": "b",
              "type": "uint256[2][2]"
            },
            {
              "internalType": "uint256[2]",
              "name": "c",
              "type": "uint256[2]"
            },
            {
              "internalType": "uint256[6]",
              "name": "input",
              "type": "uint256[6]"
            }
          ],
          "name": "verifyProof",
          "outputs": [
            {
              "internalType": "bool",
              "name": "r",
              "type": "bool"
            }
          ],
          "payable": false,
          "stateMutability": "view",
          "type": "function"
        }
      ],
      "evm": {
        "bytecode": {
          "linkReferences": {},
          "object": "608060405234801561001057600080fd5b50611725806100206000396000f3fe608060405234801561001057600080fd5b50600436106100365760003560e01c8063695ef6f91461003b578063f398789b146100d6575b600080fd5b6100bc600480360360e081101561005157600080fd5b810190808035906020019064010000000081111561006e57600080fd5b82018360208201111561008057600080fd5b803590602001918460018302840111640100000000831117156100a257600080fd5b90919293919293908060c00190919291929050505061024f565b604051808215151515815260200191505060405180910390f35b61023560048036036101c08110156100ed57600080fd5b8101908080604001906002806020026040519081016040528092919082600260200280828437600081840152601f19601f82011690508083019250505050505091929192908060800190600280602002604051908101604052809291906000905b828210156101a2578382604002016002806020026040519081016040528092919082600260200280828437600081840152601f19601f8201169050808301925050505050508152602001906001019061014e565b50505050919291929080604001906002806020026040519081016040528092919082600260200280828437600081840152601f19601f82011690508083019250505050505091929192908060c001906006806020026040519081016040528092919082600660200280828437600081840152601f19601f82011690508083019250505050505091929192905050506103f9565b604051808215151515815260200191505060405180910390f35b6000610259611572565b610261611572565b610269611572565b610271611572565b878761010081101561028257600080fd5b8101908080604001906002806020026040519081016040528092919082600260200280828437600081840152601f19601f820116905080830192505050505050919291929080604001906002806020026040519081016040528092919082600260200280828437600081840152601f19601f820116905080830192505050505050919291929080604001906002806020026040519081016040528092919082600260200280828437600081840152601f19601f820116905080830192505050505050919291929080604001906002806020026040519081016040528092919082600260200280828437600081840152601f19601f820116905080830192505050505050919291929050505093509350935093506103ec8460405180604001604052808681526020018581525083896006806020026040519081016040528092919082600660200280828437600081840152601f19601f8201169050808301925050505050506103f9565b9450505050509392505050565b6000610403611594565b60405180604001604052808760006002811061041b57fe5b602002015181526020018760016002811061043257fe5b60200201518152508160000181905250604051806040016040528060405180604001604052808860006002811061046557fe5b602002015160006002811061047657fe5b602002015181526020018860006002811061048d57fe5b602002015160016002811061049e57fe5b602002015181525081526020016040518060400160405280886001600281106104c357fe5b60200201516000600281106104d457fe5b60200201518152602001886001600281106104eb57fe5b60200201516001600281106104fc57fe5b6020020151815250815250816020018190525060405180604001604052808560006002811061052757fe5b602002015181526020018560016002811061053e57fe5b60200201518152508160400181905250606060066040519080825280602002602001820160405280156105805781602001602082028038833980820191505090505b50905060008090505b60068110156105c85784816006811061059e57fe5b60200201518282815181106105af57fe5b6020026020010181815250508080600101915050610589565b5060006105d582846105f5565b14156105e6576001925050506105ed565b6000925050505b949350505050565b6000807f30644e72e131a029b85045b68181585d2833e84879b9709143e1f593f000000190506106236115c7565b61062b610829565b90508060800151516001865101146106ab576040517f08c379a00000000000000000000000000000000000000000000000000000000081526004018080602001828103825260128152602001807f76657269666965722d6261642d696e707574000000000000000000000000000081525060200191505060405180910390fd5b6106b361160e565b6040518060400160405280600081526020016000815250905060008090505b86518110156107b257838782815181106106e857fe5b602002602001015110610763576040517f08c379a000000000000000000000000000000000000000000000000000000000815260040180806020018281038252601f8152602001807f76657269666965722d6774652d736e61726b2d7363616c61722d6669656c640081525060200191505060405180910390fd5b6107a38261079e8560800151600185018151811061077d57fe5b60200260200101518a858151811061079157fe5b6020026020010151610e3a565b610f35565b915080806001019150506106d2565b506107d58183608001516000815181106107c857fe5b6020026020010151610f35565b905061080b6107e7866000015161104f565b8660200151846000015185602001518587604001518b6040015189606001516110e9565b61081b5760019350505050610823565b600093505050505b92915050565b6108316115c7565b60405180604001604052807f2c720ff8a54ec1c1b2d518c597b49f2bab1da7ae5095ff803916d265d601bf1b81526020017f277a3efe970a81669c62400dd7f0ed389249830eeaaaf0fc6964272531ef23498152508160000181905250604051806040016040528060405180604001604052807f190432a791e168e7cd6a0d4da8ef3682d5ed8c92afa230b9a3a81afdb64d869e81526020017f1cf3815a611066ccdb17ca8341ee9b57644e5c0a4e6faf6244ca2a27094b1dd9815250815260200160405180604001604052807f064765684d1ccd75bfb00f019b53bb98eb4174523f2282748eddcfd4b455dd1781526020017f2ce1f14abc5dfb7d6b3e5561dc20dc33c6e44f4ce8f78bf8554568763a6301f38152508152508160200181905250604051806040016040528060405180604001604052807f25c3fecb952b3e4880ea1d8a724d9792034dc9804b9be3b5545bf3a1e89e060381526020017f179c5e5e9ac7d1ce68d245adcb91fea1763392fb69519f6067cdeb374c72cf7d815250815260200160405180604001604052807f284d12dc53065647197aae2d9014128dd49996d96b5aba85c8e7605899d5e44481526020017f09c846af412b9dc920433e28075fc1931a5162e10298ece782ac8c26456c612d8152508152508160400181905250604051806040016040528060405180604001604052807f1f52379f2b874f06b3d9ab3ab8bce77936e5768043c137d32fc4fd0325e9b2d181526020017f1d1ce5e6ef49ddc1573c51ce128d8244db18625aea906e3866561c2199876999815250815260200160405180604001604052807f1ee1ccd3cc85ad9d6cb13d88c2e716e34005981e6d53d676148facea58ba8d4081526020017f09974ff9d386951609242c04c7d161758e52a72e62868b41d34b739beee9e03b81525081525081606001819052506007604051908082528060200260200182016040528015610b1857816020015b610b05611628565b815260200190600190039081610afd5790505b50816080018190525060405180604001604052807f0d45325b1d916dc24de748ff6bb132ae3aab2634614cbbb656935e3d172f053f81526020017f285a4ff489e9f96cdd48d31df1465f194b026d9ed538fc8c8198d0c304e3e39a8152508160800151600081518110610b8757fe5b602002602001018190525060405180604001604052807f18ad8669660ccca35f9904090cf99ddda19b739893d4d80b9da0a75077de6b8881526020017f211e8f971a6ffee0fe02bc27e6d44a8c29eca88e706a6185e209b12ffc2567b58152508160800151600181518110610bf857fe5b602002602001018190525060405180604001604052807f2827e1fcf7208c55007d5cf91108cdf4ba316d98e2fa96aa6a45e5c1ca20e31081526020017f18adf7f4fec320e8aad0f77970fbbb6d32cc9eae14b4ade00dc9098d2ecf33df8152508160800151600281518110610c6957fe5b602002602001018190525060405180604001604052807f01e27b8fca892418cac823606a33bc7637423f196618ff716e32e3efc1ef151381526020017f18d462b4ac6e4a489872fc84a9a0bb33e3b6bd24b2b8790dae87ecb5848c096b8152508160800151600381518110610cda57fe5b602002602001018190525060405180604001604052807e765812b4ebcf784879afd5dfdbbd301568d31ed27c53cb36272370a5b31a5681526020017f14d13c596e1005d9be8f7b6d40cb3bf2f03e462d90eff795db5d0e3bcb945ae08152508160800151600481518110610d4a57fe5b602002602001018190525060405180604001604052807f12cc547287bfda6a05a07ff56687e2f35e6938fd729e9b95ff8a3dec2dc5d91081526020017f21d7af4e9ab8d3856f6408f5cc549d9db109f8979a072dd02891d03561f6e4988152508160800151600581518110610dbb57fe5b602002602001018190525060405180604001604052807f0c097ca39fca097d178a90569b603257220cf92737deb4d925ba52c2bd4c648681526020017f05e3ec12207955d4e84286ec4eaa63499d1f8a38a9c54732a9ee8e0ce7bd31488152508160800151600681518110610e2c57fe5b602002602001018190525090565b610e4261160e565b610e4a611642565b836000015181600060038110610e5c57fe5b602002018181525050836020015181600160038110610e7757fe5b6020020181815250508281600260038110610e8e57fe5b602002018181525050600060608360808460076107d05a03fa90508060008114610eb757610eb9565bfe5b5080610f2d576040517f08c379a00000000000000000000000000000000000000000000000000000000081526004018080602001828103825260128152602001807f70616972696e672d6d756c2d6661696c6564000000000000000000000000000081525060200191505060405180910390fd5b505092915050565b610f3d61160e565b610f45611664565b836000015181600060048110610f5757fe5b602002018181525050836020015181600160048110610f7257fe5b602002018181525050826000015181600260048110610f8d57fe5b602002018181525050826020015181600360048110610fa857fe5b602002018181525050600060608360c08460066107d05a03fa90508060008114610fd157610fd3565bfe5b5080611047576040517f08c379a00000000000000000000000000000000000000000000000000000000081526004018080602001828103825260128152602001807f70616972696e672d6164642d6661696c6564000000000000000000000000000081525060200191505060405180910390fd5b505092915050565b61105761160e565b60007f30644e72e131a029b85045b68181585d97816a916871ca8d3c208c16d87cfd47905060008360000151148015611094575060008360200151145b156110b85760405180604001604052806000815260200160008152509150506110e4565b604051806040016040528084600001518152602001828560200151816110da57fe5b0683038152509150505b919050565b60006060600460405190808252806020026020018201604052801561112857816020015b611115611628565b81526020019060019003908161110d5790505b5090506060600460405190808252806020026020018201604052801561116857816020015b611155611686565b81526020019060019003908161114d5790505b5090508a8260008151811061117957fe5b6020026020010181905250888260018151811061119257fe5b602002602001018190525086826002815181106111ab57fe5b602002602001018190525084826003815181106111c457fe5b602002602001018190525089816000815181106111dd57fe5b602002602001018190525087816001815181106111f657fe5b6020026020010181905250858160028151811061120f57fe5b6020026020010181905250838160038151811061122857fe5b602002602001018190525061123d828261124d565b9250505098975050505050505050565b600081518351146112c6576040517f08c379a00000000000000000000000000000000000000000000000000000000081526004018080602001828103825260168152602001807f70616972696e672d6c656e677468732d6661696c65640000000000000000000081525060200191505060405180910390fd5b60008351905060006006820290506060816040519080825280602002602001820160405280156113055781602001602082028038833980820191505090505b50905060008090505b838110156114ab5786818151811061132257fe5b60200260200101516000015182600060068402018151811061134057fe5b60200260200101818152505086818151811061135857fe5b60200260200101516020015182600160068402018151811061137657fe5b60200260200101818152505085818151811061138e57fe5b6020026020010151600001516000600281106113a657fe5b60200201518260026006840201815181106113bd57fe5b6020026020010181815250508581815181106113d557fe5b6020026020010151600001516001600281106113ed57fe5b602002015182600360068402018151811061140457fe5b60200260200101818152505085818151811061141c57fe5b60200260200101516020015160006002811061143457fe5b602002015182600460068402018151811061144b57fe5b60200260200101818152505085818151811061146357fe5b60200260200101516020015160016002811061147b57fe5b602002015182600560068402018151811061149257fe5b602002602001018181525050808060010191505061130e565b506114b46116ac565b6000602082602086026020860160086107d05a03fa905080600081146114d9576114db565bfe5b508061154f576040517f08c379a00000000000000000000000000000000000000000000000000000000081526004018080602001828103825260158152602001807f70616972696e672d6f70636f64652d6661696c6564000000000000000000000081525060200191505060405180910390fd5b60008260006001811061155e57fe5b602002015114159550505050505092915050565b6040518060400160405280600290602082028038833980820191505090505090565b60405180606001604052806115a7611628565b81526020016115b4611686565b81526020016115c1611628565b81525090565b6040518060a001604052806115da611628565b81526020016115e7611686565b81526020016115f4611686565b8152602001611601611686565b8152602001606081525090565b604051806040016040528060008152602001600081525090565b604051806040016040528060008152602001600081525090565b6040518060600160405280600390602082028038833980820191505090505090565b6040518060800160405280600490602082028038833980820191505090505090565b60405180604001604052806116996116ce565b81526020016116a66116ce565b81525090565b6040518060200160405280600190602082028038833980820191505090505090565b604051806040016040528060029060208202803883398082019150509050509056fea265627a7a72315820559b6b7a6b026f11d56f9ef4daf625ce4dba3c8e991eaaab094ffc8783e148c164736f6c63430005110032",
          "opcodes": "PUSH1 0x80 PUSH1 0x40 MSTORE CALLVALUE DUP1 ISZERO PUSH2 0x10 JUMPI PUSH1 0x0 DUP1 REVERT JUMPDEST POP PUSH2 0x1725 DUP1 PUSH2 0x20 PUSH1 0x0 CODECOPY PUSH1 0x0 RETURN INVALID PUSH1 0x80 PUSH1 0x40 MSTORE CALLVALUE DUP1 ISZERO PUSH2 0x10 JUMPI PUSH1 0x0 DUP1 REVERT JUMPDEST POP PUSH1 0x4 CALLDATASIZE LT PUSH2 0x36 JUMPI PUSH1 0x0 CALLDATALOAD PUSH1 0xE0 SHR DUP1 PUSH4 0x695EF6F9 EQ PUSH2 0x3B JUMPI DUP1 PUSH4 0xF398789B EQ PUSH2 0xD6 JUMPI JUMPDEST PUSH1 0x0 DUP1 REVERT JUMPDEST PUSH2 0xBC PUSH1 0x4 DUP1 CALLDATASIZE SUB PUSH1 0xE0 DUP2 LT ISZERO PUSH2 0x51 JUMPI PUSH1 0x0 DUP1 REVERT JUMPDEST DUP2 ADD SWAP1 DUP1 DUP1 CALLDATALOAD SWAP1 PUSH1 0x20 ADD SWAP1 PUSH5 0x100000000 DUP2 GT ISZERO PUSH2 0x6E JUMPI PUSH1 0x0 DUP1 REVERT JUMPDEST DUP3 ADD DUP4 PUSH1 0x20 DUP3 ADD GT ISZERO PUSH2 0x80 JUMPI PUSH1 0x0 DUP1 REVERT JUMPDEST DUP1 CALLDATALOAD SWAP1 PUSH1 0x20 ADD SWAP2 DUP5 PUSH1 0x1 DUP4 MUL DUP5 ADD GT PUSH5 0x100000000 DUP4 GT OR ISZERO PUSH2 0xA2 JUMPI PUSH1 0x0 DUP1 REVERT JUMPDEST SWAP1 SWAP2 SWAP3 SWAP4 SWAP2 SWAP3 SWAP4 SWAP1 DUP1 PUSH1 0xC0 ADD SWAP1 SWAP2 SWAP3 SWAP2 SWAP3 SWAP1 POP POP POP PUSH2 0x24F JUMP JUMPDEST PUSH1 0x40 MLOAD DUP1 DUP3 ISZERO ISZERO ISZERO ISZERO DUP2 MSTORE PUSH1 0x20 ADD SWAP2 POP POP PUSH1 0x40 MLOAD DUP1 SWAP2 SUB SWAP1 RETURN JUMPDEST PUSH2 0x235 PUSH1 0x4 DUP1 CALLDATASIZE SUB PUSH2 0x1C0 DUP2 LT ISZERO PUSH2 0xED JUMPI PUSH1 0x0 DUP1 REVERT JUMPDEST DUP2 ADD SWAP1 DUP1 DUP1 PUSH1 0x40 ADD SWAP1 PUSH1 0x2 DUP1 PUSH1 0x20 MUL PUSH1 0x40 MLOAD SWAP1 DUP2 ADD PUSH1 0x40 MSTORE DUP1 SWAP3 SWAP2 SWAP1 DUP3 PUSH1 0x2 PUSH1 0x20 MUL DUP1 DUP3 DUP5 CALLDATACOPY PUSH1 0x0 DUP2 DUP5 ADD MSTORE PUSH1 0x1F NOT PUSH1 0x1F DUP3 ADD AND SWAP1 POP DUP1 DUP4 ADD SWAP3 POP POP POP POP POP POP SWAP2 SWAP3 SWAP2 SWAP3 SWAP1 DUP1 PUSH1 0x80 ADD SWAP1 PUSH1 0x2 DUP1 PUSH1 0x20 MUL PUSH1 0x40 MLOAD SWAP1 DUP2 ADD PUSH1 0x40 MSTORE DUP1 SWAP3 SWAP2 SWAP1 PUSH1 0x0 SWAP1 JUMPDEST DUP3 DUP3 LT ISZERO PUSH2 0x1A2 JUMPI DUP4 DUP3 PUSH1 0x40 MUL ADD PUSH1 0x2 DUP1 PUSH1 0x20 MUL PUSH1 0x40 MLOAD SWAP1 DUP2 ADD PUSH1 0x40 MSTORE DUP1 SWAP3 SWAP2 SWAP1 DUP3 PUSH1 0x2 PUSH1 0x20 MUL DUP1 DUP3 DUP5 CALLDATACOPY PUSH1 0x0 DUP2 DUP5 ADD MSTORE PUSH1 0x1F NOT PUSH1 0x1F DUP3 ADD AND SWAP1 POP DUP1 DUP4 ADD SWAP3 POP POP POP POP POP POP DUP2 MSTORE PUSH1 0x20 ADD SWAP1 PUSH1 0x1 ADD SWAP1 PUSH2 0x14E JUMP JUMPDEST POP POP POP POP SWAP2 SWAP3 SWAP2 SWAP3 SWAP1 DUP1 PUSH1 0x40 ADD SWAP1 PUSH1 0x2 DUP1 PUSH1 0x20 MUL PUSH1 0x40 MLOAD SWAP1 DUP2 ADD PUSH1 0x40 MSTORE DUP1 SWAP3 SWAP2 SWAP1 DUP3 PUSH1 0x2 PUSH1 0x20 MUL DUP1 DUP3 DUP5 CALLDATACOPY PUSH1 0x0 DUP2 DUP5 ADD MSTORE PUSH1 0x1F NOT PUSH1 0x1F DUP3 ADD AND SWAP1 POP DUP1 DUP4 ADD SWAP3 POP POP POP POP POP POP SWAP2 SWAP3 SWAP2 SWAP3 SWAP1 DUP1 PUSH1 0xC0 ADD SWAP1 PUSH1 0x6 DUP1 PUSH1 0x20 MUL PUSH1 0x40 MLOAD SWAP1 DUP2 ADD PUSH1 0x40 MSTORE DUP1 SWAP3 SWAP2 SWAP1 DUP3 PUSH1 0x6 PUSH1 0x20 MUL DUP1 DUP3 DUP5 CALLDATACOPY PUSH1 0x0 DUP2 DUP5 ADD MSTORE PUSH1 0x1F NOT PUSH1 0x1F DUP3 ADD AND SWAP1 POP DUP1 DUP4 ADD SWAP3 POP POP POP POP POP POP SWAP2 SWAP3 SWAP2 SWAP3 SWAP1 POP POP POP PUSH2 0x3F9 JUMP JUMPDEST PUSH1 0x40 MLOAD DUP1 DUP3 ISZERO ISZERO ISZERO ISZERO DUP2 MSTORE PUSH1 0x20 ADD SWAP2 POP POP PUSH1 0x40 MLOAD DUP1 SWAP2 SUB SWAP1 RETURN JUMPDEST PUSH1 0x0 PUSH2 0x259 PUSH2 0x1572 JUMP JUMPDEST PUSH2 0x261 PUSH2 0x1572 JUMP JUMPDEST PUSH2 0x269 PUSH2 0x1572 JUMP JUMPDEST PUSH2 0x271 PUSH2 0x1572 JUMP JUMPDEST DUP8 DUP8 PUSH2 0x100 DUP2 LT ISZERO PUSH2 0x282 JUMPI PUSH1 0x0 DUP1 REVERT JUMPDEST DUP2 ADD SWAP1 DUP1 DUP1 PUSH1 0x40 ADD SWAP1 PUSH1 0x2 DUP1 PUSH1 0x20 MUL PUSH1 0x40 MLOAD SWAP1 DUP2 ADD PUSH1 0x40 MSTORE DUP1 SWAP3 SWAP2 SWAP1 DUP3 PUSH1 0x2 PUSH1 0x20 MUL DUP1 DUP3 DUP5 CALLDATACOPY PUSH1 0x0 DUP2 DUP5 ADD MSTORE PUSH1 0x1F NOT PUSH1 0x1F DUP3 ADD AND SWAP1 POP DUP1 DUP4 ADD SWAP3 POP POP POP POP POP POP SWAP2 SWAP3 SWAP2 SWAP3 SWAP1 DUP1 PUSH1 0x40 ADD SWAP1 PUSH1 0x2 DUP1 PUSH1 0x20 MUL PUSH1 0x40 MLOAD SWAP1 DUP2 ADD PUSH1 0x40 MSTORE DUP1 SWAP3 SWAP2 SWAP1 DUP3 PUSH1 0x2 PUSH1 0x20 MUL DUP1 DUP3 DUP5 CALLDATACOPY PUSH1 0x0 DUP2 DUP5 ADD MSTORE PUSH1 0x1F NOT PUSH1 0x1F DUP3 ADD AND SWAP1 POP DUP1 DUP4 ADD SWAP3 POP POP POP POP POP POP SWAP2 SWAP3 SWAP2 SWAP3 SWAP1 DUP1 PUSH1 0x40 ADD SWAP1 PUSH1 0x2 DUP1 PUSH1 0x20 MUL PUSH1 0x40 MLOAD SWAP1 DUP2 ADD PUSH1 0x40 MSTORE DUP1 SWAP3 SWAP2 SWAP1 DUP3 PUSH1 0x2 PUSH1 0x20 MUL DUP1 DUP3 DUP5 CALLDATACOPY PUSH1 0x0 DUP2 DUP5 ADD MSTORE PUSH1 0x1F NOT PUSH1 0x1F DUP3 ADD AND SWAP1 POP DUP1 DUP4 ADD SWAP3 POP POP POP POP POP POP SWAP2 SWAP3 SWAP2 SWAP3 SWAP1 DUP1 PUSH1 0x40 ADD SWAP1 PUSH1 0x2 DUP1 PUSH1 0x20 MUL PUSH1 0x40 MLOAD SWAP1 DUP2 ADD PUSH1 0x40 MSTORE DUP1 SWAP3 SWAP2 SWAP1 DUP3 PUSH1 0x2 PUSH1 0x20 MUL DUP1 DUP3 DUP5 CALLDATACOPY PUSH1 0x0 DUP2 DUP5 ADD MSTORE PUSH1 0x1F NOT PUSH1 0x1F DUP3 ADD AND SWAP1 POP DUP1 DUP4 ADD SWAP3 POP POP POP POP POP POP SWAP2 SWAP3 SWAP2 SWAP3 SWAP1 POP POP POP SWAP4 POP SWAP4 POP SWAP4 POP SWAP4 POP PUSH2 0x3EC DUP5 PUSH1 0x40 MLOAD DUP1 PUSH1 0x40 ADD PUSH1 0x40 MSTORE DUP1 DUP7 DUP2 MSTORE PUSH1 0x20 ADD DUP6 DUP2 MSTORE POP DUP4 DUP10 PUSH1 0x6 DUP1 PUSH1 0x20 MUL PUSH1 0x40 MLOAD SWAP1 DUP2 ADD PUSH1 0x40 MSTORE DUP1 SWAP3 SWAP2 SWAP1 DUP3 PUSH1 0x6 PUSH1 0x20 MUL DUP1 DUP3 DUP5 CALLDATACOPY PUSH1 0x0 DUP2 DUP5 ADD MSTORE PUSH1 0x1F NOT PUSH1 0x1F DUP3 ADD AND SWAP1 POP DUP1 DUP4 ADD SWAP3 POP POP POP POP POP POP PUSH2 0x3F9 JUMP JUMPDEST SWAP5 POP POP POP POP POP SWAP4 SWAP3 POP POP POP JUMP JUMPDEST PUSH1 0x0 PUSH2 0x403 PUSH2 0x1594 JUMP JUMPDEST PUSH1 0x40 MLOAD DUP1 PUSH1 0x40 ADD PUSH1 0x40 MSTORE DUP1 DUP8 PUSH1 0x0 PUSH1 0x2 DUP2 LT PUSH2 0x41B JUMPI INVALID JUMPDEST PUSH1 0x20 MUL ADD MLOAD DUP2 MSTORE PUSH1 0x20 ADD DUP8 PUSH1 0x1 PUSH1 0x2 DUP2 LT PUSH2 0x432 JUMPI INVALID JUMPDEST PUSH1 0x20 MUL ADD MLOAD DUP2 MSTORE POP DUP2 PUSH1 0x0 ADD DUP2 SWAP1 MSTORE POP PUSH1 0x40 MLOAD DUP1 PUSH1 0x40 ADD PUSH1 0x40 MSTORE DUP1 PUSH1 0x40 MLOAD DUP1 PUSH1 0x40 ADD PUSH1 0x40 MSTORE DUP1 DUP9 PUSH1 0x0 PUSH1 0x2 DUP2 LT PUSH2 0x465 JUMPI INVALID JUMPDEST PUSH1 0x20 MUL ADD MLOAD PUSH1 0x0 PUSH1 0x2 DUP2 LT PUSH2 0x476 JUMPI INVALID JUMPDEST PUSH1 0x20 MUL ADD MLOAD DUP2 MSTORE PUSH1 0x20 ADD DUP9 PUSH1 0x0 PUSH1 0x2 DUP2 LT PUSH2 0x48D JUMPI INVALID JUMPDEST PUSH1 0x20 MUL ADD MLOAD PUSH1 0x1 PUSH1 0x2 DUP2 LT PUSH2 0x49E JUMPI INVALID JUMPDEST PUSH1 0x20 MUL ADD MLOAD DUP2 MSTORE POP DUP2 MSTORE PUSH1 0x20 ADD PUSH1 0x40 MLOAD DUP1 PUSH1 0x40 ADD PUSH1 0x40 MSTORE DUP1 DUP9 PUSH1 0x1 PUSH1 0x2 DUP2 LT PUSH2 0x4C3 JUMPI INVALID JUMPDEST PUSH1 0x20 MUL ADD MLOAD PUSH1 0x0 PUSH1 0x2 DUP2 LT PUSH2 0x4D4 JUMPI INVALID JUMPDEST PUSH1 0x20 MUL ADD MLOAD DUP2 MSTORE PUSH1 0x20 ADD DUP9 PUSH1 0x1 PUSH1 0x2 DUP2 LT PUSH2 0x4EB JUMPI INVALID JUMPDEST PUSH1 0x20 MUL ADD MLOAD PUSH1 0x1 PUSH1 0x2 DUP2 LT PUSH2 0x4FC JUMPI INVALID JUMPDEST PUSH1 0x20 MUL ADD MLOAD DUP2 MSTORE POP DUP2 MSTORE POP DUP2 PUSH1 0x20 ADD DUP2 SWAP1 MSTORE POP PUSH1 0x40 MLOAD DUP1 PUSH1 0x40 ADD PUSH1 0x40 MSTORE DUP1 DUP6 PUSH1 0x0 PUSH1 0x2 DUP2 LT PUSH2 0x527 JUMPI INVALID JUMPDEST PUSH1 0x20 MUL ADD MLOAD DUP2 MSTORE PUSH1 0x20 ADD DUP6 PUSH1 0x1 PUSH1 0x2 DUP2 LT PUSH2 0x53E JUMPI INVALID JUMPDEST PUSH1 0x20 MUL ADD MLOAD DUP2 MSTORE POP DUP2 PUSH1 0x40 ADD DUP2 SWAP1 MSTORE POP PUSH1 0x60 PUSH1 0x6 PUSH1 0x40 MLOAD SWAP1 DUP1 DUP3 MSTORE DUP1 PUSH1 0x20 MUL PUSH1 0x20 ADD DUP3 ADD PUSH1 0x40 MSTORE DUP1 ISZERO PUSH2 0x580 JUMPI DUP2 PUSH1 0x20 ADD PUSH1 0x20 DUP3 MUL DUP1 CODESIZE DUP4 CODECOPY DUP1 DUP3 ADD SWAP2 POP POP SWAP1 POP JUMPDEST POP SWAP1 POP PUSH1 0x0 DUP1 SWAP1 POP JUMPDEST PUSH1 0x6 DUP2 LT ISZERO PUSH2 0x5C8 JUMPI DUP5 DUP2 PUSH1 0x6 DUP2 LT PUSH2 0x59E JUMPI INVALID JUMPDEST PUSH1 0x20 MUL ADD MLOAD DUP3 DUP3 DUP2 MLOAD DUP2 LT PUSH2 0x5AF JUMPI INVALID JUMPDEST PUSH1 0x20 MUL PUSH1 0x20 ADD ADD DUP2 DUP2 MSTORE POP POP DUP1 DUP1 PUSH1 0x1 ADD SWAP2 POP POP PUSH2 0x589 JUMP JUMPDEST POP PUSH1 0x0 PUSH2 0x5D5 DUP3 DUP5 PUSH2 0x5F5 JUMP JUMPDEST EQ ISZERO PUSH2 0x5E6 JUMPI PUSH1 0x1 SWAP3 POP POP POP PUSH2 0x5ED JUMP JUMPDEST PUSH1 0x0 SWAP3 POP POP POP JUMPDEST SWAP5 SWAP4 POP POP POP POP JUMP JUMPDEST PUSH1 0x0 DUP1 PUSH32 0x30644E72E131A029B85045B68181585D2833E84879B9709143E1F593F0000001 SWAP1 POP PUSH2 0x623 PUSH2 0x15C7 JUMP JUMPDEST PUSH2 0x62B PUSH2 0x829 JUMP JUMPDEST SWAP1 POP DUP1 PUSH1 0x80 ADD MLOAD MLOAD PUSH1 0x1 DUP7 MLOAD ADD EQ PUSH2 0x6AB JUMPI PUSH1 0x40 MLOAD PUSH32 0x8C379A000000000000000000000000000000000000000000000000000000000 DUP2 MSTORE PUSH1 0x4 ADD DUP1 DUP1 PUSH1 0x20 ADD DUP3 DUP2 SUB DUP3 MSTORE PUSH1 0x12 DUP2 MSTORE PUSH1 0x20 ADD DUP1 PUSH32 0x76657269666965722D6261642D696E7075740000000000000000000000000000 DUP2 MSTORE POP PUSH1 0x20 ADD SWAP2 POP POP PUSH1 0x40 MLOAD DUP1 SWAP2 SUB SWAP1 REVERT JUMPDEST PUSH2 0x6B3 PUSH2 0x160E JUMP JUMPDEST PUSH1 0x40 MLOAD DUP1 PUSH1 0x40 ADD PUSH1 0x40 MSTORE DUP1 PUSH1 0x0 DUP2 MSTORE PUSH1 0x20 ADD PUSH1 0x0 DUP2 MSTORE POP SWAP1 POP PUSH1 0x0 DUP1 SWAP1 POP JUMPDEST DUP7 MLOAD DUP2 LT ISZERO PUSH2 0x7B2 JUMPI DUP4 DUP8 DUP3 DUP2 MLOAD DUP2 LT PUSH2 0x6E8 JUMPI INVALID JUMPDEST PUSH1 0x20 MUL PUSH1 0x20 ADD ADD MLOAD LT PUSH2 0x763 JUMPI PUSH1 0x40 MLOAD PUSH32 0x8C379A000000000000000000000000000000000000000000000000000000000 DUP2 MSTORE PUSH1 0x4 ADD DUP1 DUP1 PUSH1 0x20 ADD DUP3 DUP2 SUB DUP3 MSTORE PUSH1 0x1F DUP2 MSTORE PUSH1 0x20 ADD DUP1 PUSH32 0x76657269666965722D6774652D736E61726B2D7363616C61722D6669656C6400 DUP2 MSTORE POP PUSH1 0x20 ADD SWAP2 POP POP PUSH1 0x40 MLOAD DUP1 SWAP2 SUB SWAP1 REVERT JUMPDEST PUSH2 0x7A3 DUP3 PUSH2 0x79E DUP6 PUSH1 0x80 ADD MLOAD PUSH1 0x1 DUP6 ADD DUP2 MLOAD DUP2 LT PUSH2 0x77D JUMPI INVALID JUMPDEST PUSH1 0x20 MUL PUSH1 0x20 ADD ADD MLOAD DUP11 DUP6 DUP2 MLOAD DUP2 LT PUSH2 0x791 JUMPI INVALID JUMPDEST PUSH1 0x20 MUL PUSH1 0x20 ADD ADD MLOAD PUSH2 0xE3A JUMP JUMPDEST PUSH2 0xF35 JUMP JUMPDEST SWAP2 POP DUP1 DUP1 PUSH1 0x1 ADD SWAP2 POP POP PUSH2 0x6D2 JUMP JUMPDEST POP PUSH2 0x7D5 DUP2 DUP4 PUSH1 0x80 ADD MLOAD PUSH1 0x0 DUP2 MLOAD DUP2 LT PUSH2 0x7C8 JUMPI INVALID JUMPDEST PUSH1 0x20 MUL PUSH1 0x20 ADD ADD MLOAD PUSH2 0xF35 JUMP JUMPDEST SWAP1 POP PUSH2 0x80B PUSH2 0x7E7 DUP7 PUSH1 0x0 ADD MLOAD PUSH2 0x104F JUMP JUMPDEST DUP7 PUSH1 0x20 ADD MLOAD DUP5 PUSH1 0x0 ADD MLOAD DUP6 PUSH1 0x20 ADD MLOAD DUP6 DUP8 PUSH1 0x40 ADD MLOAD DUP12 PUSH1 0x40 ADD MLOAD DUP10 PUSH1 0x60 ADD MLOAD PUSH2 0x10E9 JUMP JUMPDEST PUSH2 0x81B JUMPI PUSH1 0x1 SWAP4 POP POP POP POP PUSH2 0x823 JUMP JUMPDEST PUSH1 0x0 SWAP4 POP POP POP POP JUMPDEST SWAP3 SWAP2 POP POP JUMP JUMPDEST PUSH2 0x831 PUSH2 0x15C7 JUMP JUMPDEST PUSH1 0x40 MLOAD DUP1 PUSH1 0x40 ADD PUSH1 0x40 MSTORE DUP1 PUSH32 0x2C720FF8A54EC1C1B2D518C597B49F2BAB1DA7AE5095FF803916D265D601BF1B DUP2 MSTORE PUSH1 0x20 ADD PUSH32 0x277A3EFE970A81669C62400DD7F0ED389249830EEAAAF0FC6964272531EF2349 DUP2 MSTORE POP DUP2 PUSH1 0x0 ADD DUP2 SWAP1 MSTORE POP PUSH1 0x40 MLOAD DUP1 PUSH1 0x40 ADD PUSH1 0x40 MSTORE DUP1 PUSH1 0x40 MLOAD DUP1 PUSH1 0x40 ADD PUSH1 0x40 MSTORE DUP1 PUSH32 0x190432A791E168E7CD6A0D4DA8EF3682D5ED8C92AFA230B9A3A81AFDB64D869E DUP2 MSTORE PUSH1 0x20 ADD PUSH32 0x1CF3815A611066CCDB17CA8341EE9B57644E5C0A4E6FAF6244CA2A27094B1DD9 DUP2 MSTORE POP DUP2 MSTORE PUSH1 0x20 ADD PUSH1 0x40 MLOAD DUP1 PUSH1 0x40 ADD PUSH1 0x40 MSTORE DUP1 PUSH32 0x64765684D1CCD75BFB00F019B53BB98EB4174523F2282748EDDCFD4B455DD17 DUP2 MSTORE PUSH1 0x20 ADD PUSH32 0x2CE1F14ABC5DFB7D6B3E5561DC20DC33C6E44F4CE8F78BF8554568763A6301F3 DUP2 MSTORE POP DUP2 MSTORE POP DUP2 PUSH1 0x20 ADD DUP2 SWAP1 MSTORE POP PUSH1 0x40 MLOAD DUP1 PUSH1 0x40 ADD PUSH1 0x40 MSTORE DUP1 PUSH1 0x40 MLOAD DUP1 PUSH1 0x40 ADD PUSH1 0x40 MSTORE DUP1 PUSH32 0x25C3FECB952B3E4880EA1D8A724D9792034DC9804B9BE3B5545BF3A1E89E0603 DUP2 MSTORE PUSH1 0x20 ADD PUSH32 0x179C5E5E9AC7D1CE68D245ADCB91FEA1763392FB69519F6067CDEB374C72CF7D DUP2 MSTORE POP DUP2 MSTORE PUSH1 0x20 ADD PUSH1 0x40 MLOAD DUP1 PUSH1 0x40 ADD PUSH1 0x40 MSTORE DUP1 PUSH32 0x284D12DC53065647197AAE2D9014128DD49996D96B5ABA85C8E7605899D5E444 DUP2 MSTORE PUSH1 0x20 ADD PUSH32 0x9C846AF412B9DC920433E28075FC1931A5162E10298ECE782AC8C26456C612D DUP2 MSTORE POP DUP2 MSTORE POP DUP2 PUSH1 0x40 ADD DUP2 SWAP1 MSTORE POP PUSH1 0x40 MLOAD DUP1 PUSH1 0x40 ADD PUSH1 0x40 MSTORE DUP1 PUSH1 0x40 MLOAD DUP1 PUSH1 0x40 ADD PUSH1 0x40 MSTORE DUP1 PUSH32 0x1F52379F2B874F06B3D9AB3AB8BCE77936E5768043C137D32FC4FD0325E9B2D1 DUP2 MSTORE PUSH1 0x20 ADD PUSH32 0x1D1CE5E6EF49DDC1573C51CE128D8244DB18625AEA906E3866561C2199876999 DUP2 MSTORE POP DUP2 MSTORE PUSH1 0x20 ADD PUSH1 0x40 MLOAD DUP1 PUSH1 0x40 ADD PUSH1 0x40 MSTORE DUP1 PUSH32 0x1EE1CCD3CC85AD9D6CB13D88C2E716E34005981E6D53D676148FACEA58BA8D40 DUP2 MSTORE PUSH1 0x20 ADD PUSH32 0x9974FF9D386951609242C04C7D161758E52A72E62868B41D34B739BEEE9E03B DUP2 MSTORE POP DUP2 MSTORE POP DUP2 PUSH1 0x60 ADD DUP2 SWAP1 MSTORE POP PUSH1 0x7 PUSH1 0x40 MLOAD SWAP1 DUP1 DUP3 MSTORE DUP1 PUSH1 0x20 MUL PUSH1 0x20 ADD DUP3 ADD PUSH1 0x40 MSTORE DUP1 ISZERO PUSH2 0xB18 JUMPI DUP2 PUSH1 0x20 ADD JUMPDEST PUSH2 0xB05 PUSH2 0x1628 JUMP JUMPDEST DUP2 MSTORE PUSH1 0x20 ADD SWAP1 PUSH1 0x1 SWAP1 SUB SWAP1 DUP2 PUSH2 0xAFD JUMPI SWAP1 POP JUMPDEST POP DUP2 PUSH1 0x80 ADD DUP2 SWAP1 MSTORE POP PUSH1 0x40 MLOAD DUP1 PUSH1 0x40 ADD PUSH1 0x40 MSTORE DUP1 PUSH32 0xD45325B1D916DC24DE748FF6BB132AE3AAB2634614CBBB656935E3D172F053F DUP2 MSTORE PUSH1 0x20 ADD PUSH32 0x285A4FF489E9F96CDD48D31DF1465F194B026D9ED538FC8C8198D0C304E3E39A DUP2 MSTORE POP DUP2 PUSH1 0x80 ADD MLOAD PUSH1 0x0 DUP2 MLOAD DUP2 LT PUSH2 0xB87 JUMPI INVALID JUMPDEST PUSH1 0x20 MUL PUSH1 0x20 ADD ADD DUP2 SWAP1 MSTORE POP PUSH1 0x40 MLOAD DUP1 PUSH1 0x40 ADD PUSH1 0x40 MSTORE DUP1 PUSH32 0x18AD8669660CCCA35F9904090CF99DDDA19B739893D4D80B9DA0A75077DE6B88 DUP2 MSTORE PUSH1 0x20 ADD PUSH32 0x211E8F971A6FFEE0FE02BC27E6D44A8C29ECA88E706A6185E209B12FFC2567B5 DUP2 MSTORE POP DUP2 PUSH1 0x80 ADD MLOAD PUSH1 0x1 DUP2 MLOAD DUP2 LT PUSH2 0xBF8 JUMPI INVALID JUMPDEST PUSH1 0x20 MUL PUSH1 0x20 ADD ADD DUP2 SWAP1 MSTORE POP PUSH1 0x40 MLOAD DUP1 PUSH1 0x40 ADD PUSH1 0x40 MSTORE DUP1 PUSH32 0x2827E1FCF7208C55007D5CF91108CDF4BA316D98E2FA96AA6A45E5C1CA20E310 DUP2 MSTORE PUSH1 0x20 ADD PUSH32 0x18ADF7F4FEC320E8AAD0F77970FBBB6D32CC9EAE14B4ADE00DC9098D2ECF33DF DUP2 MSTORE POP DUP2 PUSH1 0x80 ADD MLOAD PUSH1 0x2 DUP2 MLOAD DUP2 LT PUSH2 0xC69 JUMPI INVALID JUMPDEST PUSH1 0x20 MUL PUSH1 0x20 ADD ADD DUP2 SWAP1 MSTORE POP PUSH1 0x40 MLOAD DUP1 PUSH1 0x40 ADD PUSH1 0x40 MSTORE DUP1 PUSH32 0x1E27B8FCA892418CAC823606A33BC7637423F196618FF716E32E3EFC1EF1513 DUP2 MSTORE PUSH1 0x20 ADD PUSH32 0x18D462B4AC6E4A489872FC84A9A0BB33E3B6BD24B2B8790DAE87ECB5848C096B DUP2 MSTORE POP DUP2 PUSH1 0x80 ADD MLOAD PUSH1 0x3 DUP2 MLOAD DUP2 LT PUSH2 0xCDA JUMPI INVALID JUMPDEST PUSH1 0x20 MUL PUSH1 0x20 ADD ADD DUP2 SWAP1 MSTORE POP PUSH1 0x40 MLOAD DUP1 PUSH1 0x40 ADD PUSH1 0x40 MSTORE DUP1 PUSH31 0x765812B4EBCF784879AFD5DFDBBD301568D31ED27C53CB36272370A5B31A56 DUP2 MSTORE PUSH1 0x20 ADD PUSH32 0x14D13C596E1005D9BE8F7B6D40CB3BF2F03E462D90EFF795DB5D0E3BCB945AE0 DUP2 MSTORE POP DUP2 PUSH1 0x80 ADD MLOAD PUSH1 0x4 DUP2 MLOAD DUP2 LT PUSH2 0xD4A JUMPI INVALID JUMPDEST PUSH1 0x20 MUL PUSH1 0x20 ADD ADD DUP2 SWAP1 MSTORE POP PUSH1 0x40 MLOAD DUP1 PUSH1 0x40 ADD PUSH1 0x40 MSTORE DUP1 PUSH32 0x12CC547287BFDA6A05A07FF56687E2F35E6938FD729E9B95FF8A3DEC2DC5D910 DUP2 MSTORE PUSH1 0x20 ADD PUSH32 0x21D7AF4E9AB8D3856F6408F5CC549D9DB109F8979A072DD02891D03561F6E498 DUP2 MSTORE POP DUP2 PUSH1 0x80 ADD MLOAD PUSH1 0x5 DUP2 MLOAD DUP2 LT PUSH2 0xDBB JUMPI INVALID JUMPDEST PUSH1 0x20 MUL PUSH1 0x20 ADD ADD DUP2 SWAP1 MSTORE POP PUSH1 0x40 MLOAD DUP1 PUSH1 0x40 ADD PUSH1 0x40 MSTORE DUP1 PUSH32 0xC097CA39FCA097D178A90569B603257220CF92737DEB4D925BA52C2BD4C6486 DUP2 MSTORE PUSH1 0x20 ADD PUSH32 0x5E3EC12207955D4E84286EC4EAA63499D1F8A38A9C54732A9EE8E0CE7BD3148 DUP2 MSTORE POP DUP2 PUSH1 0x80 ADD MLOAD PUSH1 0x6 DUP2 MLOAD DUP2 LT PUSH2 0xE2C JUMPI INVALID JUMPDEST PUSH1 0x20 MUL PUSH1 0x20 ADD ADD DUP2 SWAP1 MSTORE POP SWAP1 JUMP JUMPDEST PUSH2 0xE42 PUSH2 0x160E JUMP JUMPDEST PUSH2 0xE4A PUSH2 0x1642 JUMP JUMPDEST DUP4 PUSH1 0x0 ADD MLOAD DUP2 PUSH1 0x0 PUSH1 0x3 DUP2 LT PUSH2 0xE5C JUMPI INVALID JUMPDEST PUSH1 0x20 MUL ADD DUP2 DUP2 MSTORE POP POP DUP4 PUSH1 0x20 ADD MLOAD DUP2 PUSH1 0x1 PUSH1 0x3 DUP2 LT PUSH2 0xE77 JUMPI INVALID JUMPDEST PUSH1 0x20 MUL ADD DUP2 DUP2 MSTORE POP POP DUP3 DUP2 PUSH1 0x2 PUSH1 0x3 DUP2 LT PUSH2 0xE8E JUMPI INVALID JUMPDEST PUSH1 0x20 MUL ADD DUP2 DUP2 MSTORE POP POP PUSH1 0x0 PUSH1 0x60 DUP4 PUSH1 0x80 DUP5 PUSH1 0x7 PUSH2 0x7D0 GAS SUB STATICCALL SWAP1 POP DUP1 PUSH1 0x0 DUP2 EQ PUSH2 0xEB7 JUMPI PUSH2 0xEB9 JUMP JUMPDEST INVALID JUMPDEST POP DUP1 PUSH2 0xF2D JUMPI PUSH1 0x40 MLOAD PUSH32 0x8C379A000000000000000000000000000000000000000000000000000000000 DUP2 MSTORE PUSH1 0x4 ADD DUP1 DUP1 PUSH1 0x20 ADD DUP3 DUP2 SUB DUP3 MSTORE PUSH1 0x12 DUP2 MSTORE PUSH1 0x20 ADD DUP1 PUSH32 0x70616972696E672D6D756C2D6661696C65640000000000000000000000000000 DUP2 MSTORE POP PUSH1 0x20 ADD SWAP2 POP POP PUSH1 0x40 MLOAD DUP1 SWAP2 SUB SWAP1 REVERT JUMPDEST POP POP SWAP3 SWAP2 POP POP JUMP JUMPDEST PUSH2 0xF3D PUSH2 0x160E JUMP JUMPDEST PUSH2 0xF45 PUSH2 0x1664 JUMP JUMPDEST DUP4 PUSH1 0x0 ADD MLOAD DUP2 PUSH1 0x0 PUSH1 0x4 DUP2 LT PUSH2 0xF57 JUMPI INVALID JUMPDEST PUSH1 0x20 MUL ADD DUP2 DUP2 MSTORE POP POP DUP4 PUSH1 0x20 ADD MLOAD DUP2 PUSH1 0x1 PUSH1 0x4 DUP2 LT PUSH2 0xF72 JUMPI INVALID JUMPDEST PUSH1 0x20 MUL ADD DUP2 DUP2 MSTORE POP POP DUP3 PUSH1 0x0 ADD MLOAD DUP2 PUSH1 0x2 PUSH1 0x4 DUP2 LT PUSH2 0xF8D JUMPI INVALID JUMPDEST PUSH1 0x20 MUL ADD DUP2 DUP2 MSTORE POP POP DUP3 PUSH1 0x20 ADD MLOAD DUP2 PUSH1 0x3 PUSH1 0x4 DUP2 LT PUSH2 0xFA8 JUMPI INVALID JUMPDEST PUSH1 0x20 MUL ADD DUP2 DUP2 MSTORE POP POP PUSH1 0x0 PUSH1 0x60 DUP4 PUSH1 0xC0 DUP5 PUSH1 0x6 PUSH2 0x7D0 GAS SUB STATICCALL SWAP1 POP DUP1 PUSH1 0x0 DUP2 EQ PUSH2 0xFD1 JUMPI PUSH2 0xFD3 JUMP JUMPDEST INVALID JUMPDEST POP DUP1 PUSH2 0x1047 JUMPI PUSH1 0x40 MLOAD PUSH32 0x8C379A000000000000000000000000000000000000000000000000000000000 DUP2 MSTORE PUSH1 0x4 ADD DUP1 DUP1 PUSH1 0x20 ADD DUP3 DUP2 SUB DUP3 MSTORE PUSH1 0x12 DUP2 MSTORE PUSH1 0x20 ADD DUP1 PUSH32 0x70616972696E672D6164642D6661696C65640000000000000000000000000000 DUP2 MSTORE POP PUSH1 0x20 ADD SWAP2 POP POP PUSH1 0x40 MLOAD DUP1 SWAP2 SUB SWAP1 REVERT JUMPDEST POP POP SWAP3 SWAP2 POP POP JUMP JUMPDEST PUSH2 0x1057 PUSH2 0x160E JUMP JUMPDEST PUSH1 0x0 PUSH32 0x30644E72E131A029B85045B68181585D97816A916871CA8D3C208C16D87CFD47 SWAP1 POP PUSH1 0x0 DUP4 PUSH1 0x0 ADD MLOAD EQ DUP1 ISZERO PUSH2 0x1094 JUMPI POP PUSH1 0x0 DUP4 PUSH1 0x20 ADD MLOAD EQ JUMPDEST ISZERO PUSH2 0x10B8 JUMPI PUSH1 0x40 MLOAD DUP1 PUSH1 0x40 ADD PUSH1 0x40 MSTORE DUP1 PUSH1 0x0 DUP2 MSTORE PUSH1 0x20 ADD PUSH1 0x0 DUP2 MSTORE POP SWAP2 POP POP PUSH2 0x10E4 JUMP JUMPDEST PUSH1 0x40 MLOAD DUP1 PUSH1 0x40 ADD PUSH1 0x40 MSTORE DUP1 DUP5 PUSH1 0x0 ADD MLOAD DUP2 MSTORE PUSH1 0x20 ADD DUP3 DUP6 PUSH1 0x20 ADD MLOAD DUP2 PUSH2 0x10DA JUMPI INVALID JUMPDEST MOD DUP4 SUB DUP2 MSTORE POP SWAP2 POP POP JUMPDEST SWAP2 SWAP1 POP JUMP JUMPDEST PUSH1 0x0 PUSH1 0x60 PUSH1 0x4 PUSH1 0x40 MLOAD SWAP1 DUP1 DUP3 MSTORE DUP1 PUSH1 0x20 MUL PUSH1 0x20 ADD DUP3 ADD PUSH1 0x40 MSTORE DUP1 ISZERO PUSH2 0x1128 JUMPI DUP2 PUSH1 0x20 ADD JUMPDEST PUSH2 0x1115 PUSH2 0x1628 JUMP JUMPDEST DUP2 MSTORE PUSH1 0x20 ADD SWAP1 PUSH1 0x1 SWAP1 SUB SWAP1 DUP2 PUSH2 0x110D JUMPI SWAP1 POP JUMPDEST POP SWAP1 POP PUSH1 0x60 PUSH1 0x4 PUSH1 0x40 MLOAD SWAP1 DUP1 DUP3 MSTORE DUP1 PUSH1 0x20 MUL PUSH1 0x20 ADD DUP3 ADD PUSH1 0x40 MSTORE DUP1 ISZERO PUSH2 0x1168 JUMPI DUP2 PUSH1 0x20 ADD JUMPDEST PUSH2 0x1155 PUSH2 0x1686 JUMP JUMPDEST DUP2 MSTORE PUSH1 0x20 ADD SWAP1 PUSH1 0x1 SWAP1 SUB SWAP1 DUP2 PUSH2 0x114D JUMPI SWAP1 POP JUMPDEST POP SWAP1 POP DUP11 DUP3 PUSH1 0x0 DUP2 MLOAD DUP2 LT PUSH2 0x1179 JUMPI INVALID JUMPDEST PUSH1 0x20 MUL PUSH1 0x20 ADD ADD DUP2 SWAP1 MSTORE POP DUP9 DUP3 PUSH1 0x1 DUP2 MLOAD DUP2 LT PUSH2 0x1192 JUMPI INVALID JUMPDEST PUSH1 0x20 MUL PUSH1 0x20 ADD ADD DUP2 SWAP1 MSTORE POP DUP7 DUP3 PUSH1 0x2 DUP2 MLOAD DUP2 LT PUSH2 0x11AB JUMPI INVALID JUMPDEST PUSH1 0x20 MUL PUSH1 0x20 ADD ADD DUP2 SWAP1 MSTORE POP DUP5 DUP3 PUSH1 0x3 DUP2 MLOAD DUP2 LT PUSH2 0x11C4 JUMPI INVALID JUMPDEST PUSH1 0x20 MUL PUSH1 0x20 ADD ADD DUP2 SWAP1 MSTORE POP DUP10 DUP2 PUSH1 0x0 DUP2 MLOAD DUP2 LT PUSH2 0x11DD JUMPI INVALID JUMPDEST PUSH1 0x20 MUL PUSH1 0x20 ADD ADD DUP2 SWAP1 MSTORE POP DUP8 DUP2 PUSH1 0x1 DUP2 MLOAD DUP2 LT PUSH2 0x11F6 JUMPI INVALID JUMPDEST PUSH1 0x20 MUL PUSH1 0x20 ADD ADD DUP2 SWAP1 MSTORE POP DUP6 DUP2 PUSH1 0x2 DUP2 MLOAD DUP2 LT PUSH2 0x120F JUMPI INVALID JUMPDEST PUSH1 0x20 MUL PUSH1 0x20 ADD ADD DUP2 SWAP1 MSTORE POP DUP4 DUP2 PUSH1 0x3 DUP2 MLOAD DUP2 LT PUSH2 0x1228 JUMPI INVALID JUMPDEST PUSH1 0x20 MUL PUSH1 0x20 ADD ADD DUP2 SWAP1 MSTORE POP PUSH2 0x123D DUP3 DUP3 PUSH2 0x124D JUMP JUMPDEST SWAP3 POP POP POP SWAP9 SWAP8 POP POP POP POP POP POP POP POP JUMP JUMPDEST PUSH1 0x0 DUP2 MLOAD DUP4 MLOAD EQ PUSH2 0x12C6 JUMPI PUSH1 0x40 MLOAD PUSH32 0x8C379A000000000000000000000000000000000000000000000000000000000 DUP2 MSTORE PUSH1 0x4 ADD DUP1 DUP1 PUSH1 0x20 ADD DUP3 DUP2 SUB DUP3 MSTORE PUSH1 0x16 DUP2 MSTORE PUSH1 0x20 ADD DUP1 PUSH32 0x70616972696E672D6C656E677468732D6661696C656400000000000000000000 DUP2 MSTORE POP PUSH1 0x20 ADD SWAP2 POP POP PUSH1 0x40 MLOAD DUP1 SWAP2 SUB SWAP1 REVERT JUMPDEST PUSH1 0x0 DUP4 MLOAD SWAP1 POP PUSH1 0x0 PUSH1 0x6 DUP3 MUL SWAP1 POP PUSH1 0x60 DUP2 PUSH1 0x40 MLOAD SWAP1 DUP1 DUP3 MSTORE DUP1 PUSH1 0x20 MUL PUSH1 0x20 ADD DUP3 ADD PUSH1 0x40 MSTORE DUP1 ISZERO PUSH2 0x1305 JUMPI DUP2 PUSH1 0x20 ADD PUSH1 0x20 DUP3 MUL DUP1 CODESIZE DUP4 CODECOPY DUP1 DUP3 ADD SWAP2 POP POP SWAP1 POP JUMPDEST POP SWAP1 POP PUSH1 0x0 DUP1 SWAP1 POP JUMPDEST DUP4 DUP2 LT ISZERO PUSH2 0x14AB JUMPI DUP7 DUP2 DUP2 MLOAD DUP2 LT PUSH2 0x1322 JUMPI INVALID JUMPDEST PUSH1 0x20 MUL PUSH1 0x20 ADD ADD MLOAD PUSH1 0x0 ADD MLOAD DUP3 PUSH1 0x0 PUSH1 0x6 DUP5 MUL ADD DUP2 MLOAD DUP2 LT PUSH2 0x1340 JUMPI INVALID JUMPDEST PUSH1 0x20 MUL PUSH1 0x20 ADD ADD DUP2 DUP2 MSTORE POP POP DUP7 DUP2 DUP2 MLOAD DUP2 LT PUSH2 0x1358 JUMPI INVALID JUMPDEST PUSH1 0x20 MUL PUSH1 0x20 ADD ADD MLOAD PUSH1 0x20 ADD MLOAD DUP3 PUSH1 0x1 PUSH1 0x6 DUP5 MUL ADD DUP2 MLOAD DUP2 LT PUSH2 0x1376 JUMPI INVALID JUMPDEST PUSH1 0x20 MUL PUSH1 0x20 ADD ADD DUP2 DUP2 MSTORE POP POP DUP6 DUP2 DUP2 MLOAD DUP2 LT PUSH2 0x138E JUMPI INVALID JUMPDEST PUSH1 0x20 MUL PUSH1 0x20 ADD ADD MLOAD PUSH1 0x0 ADD MLOAD PUSH1 0x0 PUSH1 0x2 DUP2 LT PUSH2 0x13A6 JUMPI INVALID JUMPDEST PUSH1 0x20 MUL ADD MLOAD DUP3 PUSH1 0x2 PUSH1 0x6 DUP5 MUL ADD DUP2 MLOAD DUP2 LT PUSH2 0x13BD JUMPI INVALID JUMPDEST PUSH1 0x20 MUL PUSH1 0x20 ADD ADD DUP2 DUP2 MSTORE POP POP DUP6 DUP2 DUP2 MLOAD DUP2 LT PUSH2 0x13D5 JUMPI INVALID JUMPDEST PUSH1 0x20 MUL PUSH1 0x20 ADD ADD MLOAD PUSH1 0x0 ADD MLOAD PUSH1 0x1 PUSH1 0x2 DUP2 LT PUSH2 0x13ED JUMPI INVALID JUMPDEST PUSH1 0x20 MUL ADD MLOAD DUP3 PUSH1 0x3 PUSH1 0x6 DUP5 MUL ADD DUP2 MLOAD DUP2 LT PUSH2 0x1404 JUMPI INVALID JUMPDEST PUSH1 0x20 MUL PUSH1 0x20 ADD ADD DUP2 DUP2 MSTORE POP POP DUP6 DUP2 DUP2 MLOAD DUP2 LT PUSH2 0x141C JUMPI INVALID JUMPDEST PUSH1 0x20 MUL PUSH1 0x20 ADD ADD MLOAD PUSH1 0x20 ADD MLOAD PUSH1 0x0 PUSH1 0x2 DUP2 LT PUSH2 0x1434 JUMPI INVALID JUMPDEST PUSH1 0x20 MUL ADD MLOAD DUP3 PUSH1 0x4 PUSH1 0x6 DUP5 MUL ADD DUP2 MLOAD DUP2 LT PUSH2 0x144B JUMPI INVALID JUMPDEST PUSH1 0x20 MUL PUSH1 0x20 ADD ADD DUP2 DUP2 MSTORE POP POP DUP6 DUP2 DUP2 MLOAD DUP2 LT PUSH2 0x1463 JUMPI INVALID JUMPDEST PUSH1 0x20 MUL PUSH1 0x20 ADD ADD MLOAD PUSH1 0x20 ADD MLOAD PUSH1 0x1 PUSH1 0x2 DUP2 LT PUSH2 0x147B JUMPI INVALID JUMPDEST PUSH1 0x20 MUL ADD MLOAD DUP3 PUSH1 0x5 PUSH1 0x6 DUP5 MUL ADD DUP2 MLOAD DUP2 LT PUSH2 0x1492 JUMPI INVALID JUMPDEST PUSH1 0x20 MUL PUSH1 0x20 ADD ADD DUP2 DUP2 MSTORE POP POP DUP1 DUP1 PUSH1 0x1 ADD SWAP2 POP POP PUSH2 0x130E JUMP JUMPDEST POP PUSH2 0x14B4 PUSH2 0x16AC JUMP JUMPDEST PUSH1 0x0 PUSH1 0x20 DUP3 PUSH1 0x20 DUP7 MUL PUSH1 0x20 DUP7 ADD PUSH1 0x8 PUSH2 0x7D0 GAS SUB STATICCALL SWAP1 POP DUP1 PUSH1 0x0 DUP2 EQ PUSH2 0x14D9 JUMPI PUSH2 0x14DB JUMP JUMPDEST INVALID JUMPDEST POP DUP1 PUSH2 0x154F JUMPI PUSH1 0x40 MLOAD PUSH32 0x8C379A000000000000000000000000000000000000000000000000000000000 DUP2 MSTORE PUSH1 0x4 ADD DUP1 DUP1 PUSH1 0x20 ADD DUP3 DUP2 SUB DUP3 MSTORE PUSH1 0x15 DUP2 MSTORE PUSH1 0x20 ADD DUP1 PUSH32 0x70616972696E672D6F70636F64652D6661696C65640000000000000000000000 DUP2 MSTORE POP PUSH1 0x20 ADD SWAP2 POP POP PUSH1 0x40 MLOAD DUP1 SWAP2 SUB SWAP1 REVERT JUMPDEST PUSH1 0x0 DUP3 PUSH1 0x0 PUSH1 0x1 DUP2 LT PUSH2 0x155E JUMPI INVALID JUMPDEST PUSH1 0x20 MUL ADD MLOAD EQ ISZERO SWAP6 POP POP POP POP POP POP SWAP3 SWAP2 POP POP JUMP JUMPDEST PUSH1 0x40 MLOAD DUP1 PUSH1 0x40 ADD PUSH1 0x40 MSTORE DUP1 PUSH1 0x2 SWAP1 PUSH1 0x20 DUP3 MUL DUP1 CODESIZE DUP4 CODECOPY DUP1 DUP3 ADD SWAP2 POP POP SWAP1 POP POP SWAP1 JUMP JUMPDEST PUSH1 0x40 MLOAD DUP1 PUSH1 0x60 ADD PUSH1 0x40 MSTORE DUP1 PUSH2 0x15A7 PUSH2 0x1628 JUMP JUMPDEST DUP2 MSTORE PUSH1 0x20 ADD PUSH2 0x15B4 PUSH2 0x1686 JUMP JUMPDEST DUP2 MSTORE PUSH1 0x20 ADD PUSH2 0x15C1 PUSH2 0x1628 JUMP JUMPDEST DUP2 MSTORE POP SWAP1 JUMP JUMPDEST PUSH1 0x40 MLOAD DUP1 PUSH1 0xA0 ADD PUSH1 0x40 MSTORE DUP1 PUSH2 0x15DA PUSH2 0x1628 JUMP JUMPDEST DUP2 MSTORE PUSH1 0x20 ADD PUSH2 0x15E7 PUSH2 0x1686 JUMP JUMPDEST DUP2 MSTORE PUSH1 0x20 ADD PUSH2 0x15F4 PUSH2 0x1686 JUMP JUMPDEST DUP2 MSTORE PUSH1 0x20 ADD PUSH2 0x1601 PUSH2 0x1686 JUMP JUMPDEST DUP2 MSTORE PUSH1 0x20 ADD PUSH1 0x60 DUP2 MSTORE POP SWAP1 JUMP JUMPDEST PUSH1 0x40 MLOAD DUP1 PUSH1 0x40 ADD PUSH1 0x40 MSTORE DUP1 PUSH1 0x0 DUP2 MSTORE PUSH1 0x20 ADD PUSH1 0x0 DUP2 MSTORE POP SWAP1 JUMP JUMPDEST PUSH1 0x40 MLOAD DUP1 PUSH1 0x40 ADD PUSH1 0x40 MSTORE DUP1 PUSH1 0x0 DUP2 MSTORE PUSH1 0x20 ADD PUSH1 0x0 DUP2 MSTORE POP SWAP1 JUMP JUMPDEST PUSH1 0x40 MLOAD DUP1 PUSH1 0x60 ADD PUSH1 0x40 MSTORE DUP1 PUSH1 0x3 SWAP1 PUSH1 0x20 DUP3 MUL DUP1 CODESIZE DUP4 CODECOPY DUP1 DUP3 ADD SWAP2 POP POP SWAP1 POP POP SWAP1 JUMP JUMPDEST PUSH1 0x40 MLOAD DUP1 PUSH1 0x80 ADD PUSH1 0x40 MSTORE DUP1 PUSH1 0x4 SWAP1 PUSH1 0x20 DUP3 MUL DUP1 CODESIZE DUP4 CODECOPY DUP1 DUP3 ADD SWAP2 POP POP SWAP1 POP POP SWAP1 JUMP JUMPDEST PUSH1 0x40 MLOAD DUP1 PUSH1 0x40 ADD PUSH1 0x40 MSTORE DUP1 PUSH2 0x1699 PUSH2 0x16CE JUMP JUMPDEST DUP2 MSTORE PUSH1 0x20 ADD PUSH2 0x16A6 PUSH2 0x16CE JUMP JUMPDEST DUP2 MSTORE POP SWAP1 JUMP JUMPDEST PUSH1 0x40 MLOAD DUP1 PUSH1 0x20 ADD PUSH1 0x40 MSTORE DUP1 PUSH1 0x1 SWAP1 PUSH1 0x20 DUP3 MUL DUP1 CODESIZE DUP4 CODECOPY DUP1 DUP3 ADD SWAP2 POP POP SWAP1 POP POP SWAP1 JUMP JUMPDEST PUSH1 0x40 MLOAD DUP1 PUSH1 0x40 ADD PUSH1 0x40 MSTORE DUP1 PUSH1 0x2 SWAP1 PUSH1 0x20 DUP3 MUL DUP1 CODESIZE DUP4 CODECOPY DUP1 DUP3 ADD SWAP2 POP POP SWAP1 POP POP SWAP1 JUMP INVALID LOG2 PUSH6 0x627A7A723158 KECCAK256 SSTORE SWAP12 PUSH12 0x7A6B026F11D56F9EF4DAF625 0xCE 0x4D 0xBA EXTCODECOPY DUP15 SWAP10 0x1E 0xAA 0xAB MULMOD 0x4F 0xFC DUP8 DUP4 0xE1 0x48 0xC1 PUSH5 0x736F6C6343 STOP SDIV GT STOP ORIGIN "
        },
        "methodIdentifiers": {
          "verifyProof(bytes,uint256[6])": "695ef6f9",
          "verifyProof(uint256[2],uint256[2][2],uint256[2],uint256[6])": "f398789b"
        }
      }
    }
  }
}