{
  "_format": "hh-sol-artifact-1",
  "contractName": "MerkleTreeWithHistoryMock",
  "sourceName": "contracts/Mocks/MerkleTreeWithHistoryMock.sol",
  "abi": [
    {
      "inputs": [
        {
          "internalType": "uint32",
          "name": "_treeLevels",
          "type": "uint32"
        }
      ],
      "payable": false,
      "stateMutability": "nonpayable",
      "type": "constructor"
    },
    {
      "constant": true,
      "inputs": [],
      "name": "FIELD_SIZE",
      "outputs": [
        {
          "internalType": "uint256",
          "name": "",
          "type": "uint256"
        }
      ],
      "payable": false,
      "stateMutability": "view",
      "type": "function"
    },
    {
      "constant": true,
      "inputs": [],
      "name": "ROOT_HISTORY_SIZE",
      "outputs": [
        {
          "internalType": "uint32",
          "name": "",
          "type": "uint32"
        }
      ],
      "payable": false,
      "stateMutability": "view",
      "type": "function"
    },
    {
      "constant": true,
      "inputs": [],
      "name": "ZERO_VALUE",
      "outputs": [
        {
          "internalType": "uint256",
          "name": "",
          "type": "uint256"
        }
      ],
      "payable": false,
      "stateMutability": "view",
      "type": "function"
    },
    {
      "constant": true,
      "inputs": [],
      "name": "currentRootIndex",
      "outputs": [
        {
          "internalType": "uint32",
          "name": "",
          "type": "uint32"
        }
      ],
      "payable": false,
      "stateMutability": "view",
      "type": "function"
    },
    {
      "constant": true,
      "inputs": [
        {
          "internalType": "uint256",
          "name": "",
          "type": "uint256"
        }
      ],
      "name": "filledSubtrees",
      "outputs": [
        {
          "internalType": "bytes32",
          "name": "",
          "type": "bytes32"
        }
      ],
      "payable": false,
      "stateMutability": "view",
      "type": "function"
    },
    {
      "constant": true,
      "inputs": [],
      "name": "getLastRoot",
      "outputs": [
        {
          "internalType": "bytes32",
          "name": "",
          "type": "bytes32"
        }
      ],
      "payable": false,
      "stateMutability": "view",
      "type": "function"
    },
    {
      "constant": true,
      "inputs": [
        {
          "internalType": "bytes32",
          "name": "_left",
          "type": "bytes32"
        },
        {
          "internalType": "bytes32",
          "name": "_right",
          "type": "bytes32"
        }
      ],
      "name": "hashLeftRight",
      "outputs": [
        {
          "internalType": "bytes32",
          "name": "",
          "type": "bytes32"
        }
      ],
      "payable": false,
      "stateMutability": "pure",
      "type": "function"
    },
    {
      "constant": false,
      "inputs": [
        {
          "internalType": "bytes32",
          "name": "_leaf",
          "type": "bytes32"
        }
      ],
      "name": "insert",
      "outputs": [],
      "payable": false,
      "stateMutability": "nonpayable",
      "type": "function"
    },
    {
      "constant": true,
      "inputs": [
        {
          "internalType": "bytes32",
          "name": "_root",
          "type": "bytes32"
        }
      ],
      "name": "isKnownRoot",
      "outputs": [
        {
          "internalType": "bool",
          "name": "",
          "type": "bool"
        }
      ],
      "payable": false,
      "stateMutability": "view",
      "type": "function"
    },
    {
      "constant": true,
      "inputs": [],
      "name": "levels",
      "outputs": [
        {
          "internalType": "uint32",
          "name": "",
          "type": "uint32"
        }
      ],
      "payable": false,
      "stateMutability": "view",
      "type": "function"
    },
    {
      "constant": true,
      "inputs": [],
      "name": "nextIndex",
      "outputs": [
        {
          "internalType": "uint32",
          "name": "",
          "type": "uint32"
        }
      ],
      "payable": false,
      "stateMutability": "view",
      "type": "function"
    },
    {
      "constant": true,
      "inputs": [
        {
          "internalType": "uint256",
          "name": "",
          "type": "uint256"
        }
      ],
      "name": "roots",
      "outputs": [
        {
          "internalType": "bytes32",
          "name": "",
          "type": "bytes32"
        }
      ],
      "payable": false,
      "stateMutability": "view",
      "type": "function"
    },
    {
      "constant": true,
      "inputs": [
        {
          "internalType": "uint256",
          "name": "",
          "type": "uint256"
        }
      ],
      "name": "zeros",
      "outputs": [
        {
          "internalType": "bytes32",
          "name": "",
          "type": "bytes32"
        }
      ],
      "payable": false,
      "stateMutability": "view",
      "type": "function"
    }
  ],
  "bytecode": "0x60806040526000600360006101000a81548163ffffffff021916908363ffffffff1602179055506000600360046101000a81548163ffffffff021916908363ffffffff16021790555034801561005457600080fd5b5060405162001080380380620010808339818101604052602081101561007957600080fd5b81019080805190602001909291905050508060008163ffffffff16116100eb576040517f08c379a0000000000000000000000000000000000000000000000000000000008152600401808060200182810382526027815260200180620010376027913960400191505060405180910390fd5b60208163ffffffff161061014b576040517f08c379a00000000000000000000000000000000000000000000000000000000081526004018080602001828103825260228152602001806200105e6022913960400191505060405180910390fd5b806000806101000a81548163ffffffff021916908363ffffffff16021790555060007f2fe54c60d3acabf3343a35b6eba15db4821b340f76e741e2249685ed4899af6c60001b9050600281908060018154018082558091505090600182039060005260206000200160009091929091909150555060018190806001815401808255809150509060018203906000526020600020016000909192909190915055506000600190505b6000809054906101000a900463ffffffff1663ffffffff168163ffffffff16101561028e5761022782836102ba60201b60201c565b91506002829080600181540180825580915050906001820390600052602060002001600090919290919091505550600182908060018154018082558091505090600182039060005260206000200160009091929091909150555080806001019150506101f2565b5061029f81826102ba60201b60201c565b60046000606481106102ad57fe5b0181905550505050610561565b60007f30644e72e131a029b85045b68181585d2833e84879b9709143e1f593f00000018360001c10610354576040517f08c379a00000000000000000000000000000000000000000000000000000000081526004018080602001828103825260208152602001807f5f6c6566742073686f756c6420626520696e7369646520746865206669656c6481525060200191505060405180910390fd5b7f30644e72e131a029b85045b68181585d2833e84879b9709143e1f593f00000018260001c106103d0576040517f08c379a0000000000000000000000000000000000000000000000000000000008152600401808060200182810382526021815260200180620010166021913960400191505060405180910390fd5b60008360001c9050600080905073__$9780738a116369df5fe6eb1df74865bc0a$__63f47d33b583836040518363ffffffff1660e01b81526004018083815260200182815260200192505050604080518083038186803b15801561043357600080fd5b505af4158015610447573d6000803e3d6000fd5b505050506040513d604081101561045d57600080fd5b81019080805190602001909291908051906020019092919050505080925081935050507f30644e72e131a029b85045b68181585d2833e84879b9709143e1f593f0000001806104a857fe5b8460001c8308915073__$9780738a116369df5fe6eb1df74865bc0a$__63f47d33b583836040518363ffffffff1660e01b81526004018083815260200182815260200192505050604080518083038186803b15801561050657600080fd5b505af415801561051a573d6000803e3d6000fd5b505050506040513d604081101561053057600080fd5b81019080805190602001909291908051906020019092919050505080925081935050508160001b9250505092915050565b610aa580620005716000396000f3fe608060405234801561001057600080fd5b50600436106100cf5760003560e01c8063ba70f7571161008c578063e829558811610066578063e829558814610290578063ec732959146102d2578063f178e47c146102f0578063fc7e9c6f14610332576100cf565b8063ba70f75714610206578063c2b40ae414610224578063cd87a3b414610266576100cf565b80632d287e43146100d457806338bf282e14610102578063414a37ba1461014e5780634ecf518b1461016c5780636d9833e31461019657806390eeb02b146101dc575b600080fd5b610100600480360360208110156100ea57600080fd5b810190808035906020019092919050505061035c565b005b6101386004803603604081101561011857600080fd5b810190808035906020019092919080359060200190929190505050610369565b6040518082815260200191505060405180910390f35b61015661060f565b6040518082815260200191505060405180910390f35b610174610633565b604051808263ffffffff1663ffffffff16815260200191505060405180910390f35b6101c2600480360360208110156101ac57600080fd5b8101908080359060200190929190505050610648565b604051808215151515815260200191505060405180910390f35b6101e46106ea565b604051808263ffffffff1663ffffffff16815260200191505060405180910390f35b61020e610700565b6040518082815260200191505060405180910390f35b6102506004803603602081101561023a57600080fd5b810190808035906020019092919050505061072e565b6040518082815260200191505060405180910390f35b61026e610746565b604051808263ffffffff1663ffffffff16815260200191505060405180910390f35b6102bc600480360360208110156102a657600080fd5b810190808035906020019092919050505061074b565b6040518082815260200191505060405180910390f35b6102da61076c565b6040518082815260200191505060405180910390f35b61031c6004803603602081101561030657600080fd5b8101908080359060200190929190505050610790565b6040518082815260200191505060405180910390f35b61033a6107b1565b604051808263ffffffff1663ffffffff16815260200191505060405180910390f35b610365816107c7565b5050565b60007f30644e72e131a029b85045b68181585d2833e84879b9709143e1f593f00000018360001c10610403576040517f08c379a00000000000000000000000000000000000000000000000000000000081526004018080602001828103825260208152602001807f5f6c6566742073686f756c6420626520696e7369646520746865206669656c6481525060200191505060405180910390fd5b7f30644e72e131a029b85045b68181585d2833e84879b9709143e1f593f00000018260001c1061047e576040517f08c379a0000000000000000000000000000000000000000000000000000000008152600401808060200182810382526021815260200180610a506021913960400191505060405180910390fd5b60008360001c9050600080905073__$9780738a116369df5fe6eb1df74865bc0a$__63f47d33b583836040518363ffffffff1660e01b81526004018083815260200182815260200192505050604080518083038186803b1580156104e157600080fd5b505af41580156104f5573d6000803e3d6000fd5b505050506040513d604081101561050b57600080fd5b81019080805190602001909291908051906020019092919050505080925081935050507f30644e72e131a029b85045b68181585d2833e84879b9709143e1f593f00000018061055657fe5b8460001c8308915073__$9780738a116369df5fe6eb1df74865bc0a$__63f47d33b583836040518363ffffffff1660e01b81526004018083815260200182815260200192505050604080518083038186803b1580156105b457600080fd5b505af41580156105c8573d6000803e3d6000fd5b505050506040513d60408110156105de57600080fd5b81019080805190602001909291908051906020019092919050505080925081935050508160001b9250505092915050565b7f30644e72e131a029b85045b68181585d2833e84879b9709143e1f593f000000181565b6000809054906101000a900463ffffffff1681565b60008060001b82141561065e57600090506106e5565b6000600360009054906101000a900463ffffffff1690505b60048163ffffffff166064811061068957fe5b015483141561069c5760019150506106e5565b60008163ffffffff1614156106b057606490505b808060019003915050600360009054906101000a900463ffffffff1663ffffffff168163ffffffff1614156106765760009150505b919050565b600360009054906101000a900463ffffffff1681565b60006004600360009054906101000a900463ffffffff1663ffffffff166064811061072757fe5b0154905090565b6004816064811061073b57fe5b016000915090505481565b606481565b6002818154811061075857fe5b906000526020600020016000915090505481565b7f2fe54c60d3acabf3343a35b6eba15db4821b340f76e741e2249685ed4899af6c81565b6001818154811061079d57fe5b906000526020600020016000915090505481565b600360049054906101000a900463ffffffff1681565b600080600360049054906101000a900463ffffffff1690506000809054906101000a900463ffffffff1663ffffffff16600263ffffffff160a63ffffffff168163ffffffff161415610864576040517f08c379a000000000000000000000000000000000000000000000000000000000815260040180806020018281038252602f815260200180610a21602f913960400191505060405180910390fd5b6001600360048282829054906101000a900463ffffffff160192506101000a81548163ffffffff021916908363ffffffff160217905550600083905060008060008090505b6000809054906101000a900463ffffffff1663ffffffff168163ffffffff16101561098757600060028663ffffffff16816108e057fe5b0663ffffffff1614156109375783925060028163ffffffff168154811061090357fe5b906000526020600020015491508360018263ffffffff168154811061092457fe5b906000526020600020018190555061095b565b60018163ffffffff168154811061094a57fe5b906000526020600020015492508391505b6109658383610369565b935060028563ffffffff168161097757fe5b04945080806001019150506108a9565b50606463ffffffff166001600360009054906101000a900463ffffffff160163ffffffff16816109b357fe5b06600360006101000a81548163ffffffff021916908363ffffffff160217905550826004600360009054906101000a900463ffffffff1663ffffffff16606481106109fa57fe5b01819055506001600360049054906101000a900463ffffffff160394505050505091905056fe4d65726b6c6520747265652069732066756c6c2e204e6f206d6f7265206c656166732063616e2062652061646465645f72696768742073686f756c6420626520696e7369646520746865206669656c64a265627a7a723158205bda09830e62f149db6532f70d951838bdc450d66522a8ab3c3469784748997064736f6c634300051100325f72696768742073686f756c6420626520696e7369646520746865206669656c645f747265654c6576656c732073686f756c642062652067726561746572207468616e207a65726f5f747265654c6576656c732073686f756c64206265206c657373207468616e203332",
  "linkReferences": {
    "contracts/MerkleTreeWithHistory.sol": {
      "Hasher": [
        {
          "length": 20,
          "start": 991
        },
        {
          "length": 20,
          "start": 1202
        },
        {
          "length": 20,
          "start": 2558
        },
        {
          "length": 20,
          "start": 2769
        }
      ]
    }
  },
  "deployedLinkReferences": {
    "contracts/MerkleTreeWithHistory.sol": {
      "Hasher": [
        {
          "length": 20,
          "start": 1165
        },
        {
          "length": 20,
          "start": 1376
        }
      ]
    }
  }
}