{
  "_format": "hh-sol-artifact-1",
  "contractName": "ERC20Tornado",
  "sourceName": "contracts/ERC20Tornado.sol",
  "abi": [
    {
      "inputs": [
        {
          "internalType": "contract IVerifier",
          "name": "_verifier",
          "type": "address"
        },
        {
          "internalType": "uint256",
          "name": "_denomination",
          "type": "uint256"
        },
        {
          "internalType": "uint32",
          "name": "_merkleTreeHeight",
          "type": "uint32"
        },
        {
          "internalType": "address",
          "name": "_operator",
          "type": "address"
        },
        {
          "internalType": "address",
          "name": "_token",
          "type": "address"
        }
      ],
      "payable": false,
      "stateMutability": "nonpayable",
      "type": "constructor"
    },
    {
      "anonymous": false,
      "inputs": [
        {
          "indexed": true,
          "internalType": "bytes32",
          "name": "commitment",
          "type": "bytes32"
        },
        {
          "indexed": false,
          "internalType": "uint32",
          "name": "leafIndex",
          "type": "uint32"
        },
        {
          "indexed": false,
          "internalType": "uint256",
          "name": "timestamp",
          "type": "uint256"
        }
      ],
      "name": "Deposit",
      "type": "event"
    },
    {
      "anonymous": false,
      "inputs": [
        {
          "indexed": false,
          "internalType": "address",
          "name": "to",
          "type": "address"
        },
        {
          "indexed": false,
          "internalType": "bytes32",
          "name": "nullifierHash",
          "type": "bytes32"
        },
        {
          "indexed": true,
          "internalType": "address",
          "name": "relayer",
          "type": "address"
        },
        {
          "indexed": false,
          "internalType": "uint256",
          "name": "fee",
          "type": "uint256"
        }
      ],
      "name": "Withdrawal",
      "type": "event"
    },
    {
      "constant": true,
      "inputs": [],
      "name": "FIELD_SIZE",
      "outputs": [
        {
          "internalType": "uint256",
          "name": "",
          "type": "uint256"
        }
      ],
      "payable": false,
      "stateMutability": "view",
      "type": "function"
    },
    {
      "constant": true,
      "inputs": [],
      "name": "ROOT_HISTORY_SIZE",
      "outputs": [
        {
          "internalType": "uint32",
          "name": "",
          "type": "uint32"
        }
      ],
      "payable": false,
      "stateMutability": "view",
      "type": "function"
    },
    {
      "constant": true,
      "inputs": [],
      "name": "ZERO_VALUE",
      "outputs": [
        {
          "internalType": "uint256",
          "name": "",
          "type": "uint256"
        }
      ],
      "payable": false,
      "stateMutability": "view",
      "type": "function"
    },
    {
      "constant": false,
      "inputs": [
        {
          "internalType": "address",
          "name": "_newOperator",
          "type": "address"
        }
      ],
      "name": "changeOperator",
      "outputs": [],
      "payable": false,
      "stateMutability": "nonpayable",
      "type": "function"
    },
    {
      "constant": true,
      "inputs": [
        {
          "internalType": "bytes32",
          "name": "",
          "type": "bytes32"
        }
      ],
      "name": "commitments",
      "outputs": [
        {
          "internalType": "bool",
          "name": "",
          "type": "bool"
        }
      ],
      "payable": false,
      "stateMutability": "view",
      "type": "function"
    },
    {
      "constant": true,
      "inputs": [],
      "name": "currentRootIndex",
      "outputs": [
        {
          "internalType": "uint32",
          "name": "",
          "type": "uint32"
        }
      ],
      "payable": false,
      "stateMutability": "view",
      "type": "function"
    },
    {
      "constant": true,
      "inputs": [],
      "name": "denomination",
      "outputs": [
        {
          "internalType": "uint256",
          "name": "",
          "type": "uint256"
        }
      ],
      "payable": false,
      "stateMutability": "view",
      "type": "function"
    },
    {
      "constant": false,
      "inputs": [
        {
          "internalType": "bytes32",
          "name": "_commitment",
          "type": "bytes32"
        }
      ],
      "name": "deposit",
      "outputs": [],
      "payable": true,
      "stateMutability": "payable",
      "type": "function"
    },
    {
      "constant": true,
      "inputs": [
        {
          "internalType": "uint256",
          "name": "",
          "type": "uint256"
        }
      ],
      "name": "filledSubtrees",
      "outputs": [
        {
          "internalType": "bytes32",
          "name": "",
          "type": "bytes32"
        }
      ],
      "payable": false,
      "stateMutability": "view",
      "type": "function"
    },
    {
      "constant": true,
      "inputs": [],
      "name": "getLastRoot",
      "outputs": [
        {
          "internalType": "bytes32",
          "name": "",
          "type": "bytes32"
        }
      ],
      "payable": false,
      "stateMutability": "view",
      "type": "function"
    },
    {
      "constant": true,
      "inputs": [
        {
          "internalType": "bytes32",
          "name": "_left",
          "type": "bytes32"
        },
        {
          "internalType": "bytes32",
          "name": "_right",
          "type": "bytes32"
        }
      ],
      "name": "hashLeftRight",
      "outputs": [
        {
          "internalType": "bytes32",
          "name": "",
          "type": "bytes32"
        }
      ],
      "payable": false,
      "stateMutability": "pure",
      "type": "function"
    },
    {
      "constant": true,
      "inputs": [
        {
          "internalType": "bytes32",
          "name": "_root",
          "type": "bytes32"
        }
      ],
      "name": "isKnownRoot",
      "outputs": [
        {
          "internalType": "bool",
          "name": "",
          "type": "bool"
        }
      ],
      "payable": false,
      "stateMutability": "view",
      "type": "function"
    },
    {
      "constant": true,
      "inputs": [
        {
          "internalType": "bytes32",
          "name": "_nullifierHash",
          "type": "bytes32"
        }
      ],
      "name": "isSpent",
      "outputs": [
        {
          "internalType": "bool",
          "name": "",
          "type": "bool"
        }
      ],
      "payable": false,
      "stateMutability": "view",
      "type": "function"
    },
    {
      "constant": true,
      "inputs": [
        {
          "internalType": "bytes32[]",
          "name": "_nullifierHashes",
          "type": "bytes32[]"
        }
      ],
      "name": "isSpentArray",
      "outputs": [
        {
          "internalType": "bool[]",
          "name": "spent",
          "type": "bool[]"
        }
      ],
      "payable": false,
      "stateMutability": "view",
      "type": "function"
    },
    {
      "constant": true,
      "inputs": [],
      "name": "levels",
      "outputs": [
        {
          "internalType": "uint32",
          "name": "",
          "type": "uint32"
        }
      ],
      "payable": false,
      "stateMutability": "view",
      "type": "function"
    },
    {
      "constant": true,
      "inputs": [],
      "name": "nextIndex",
      "outputs": [
        {
          "internalType": "uint32",
          "name": "",
          "type": "uint32"
        }
      ],
      "payable": false,
      "stateMutability": "view",
      "type": "function"
    },
    {
      "constant": true,
      "inputs": [
        {
          "internalType": "bytes32",
          "name": "",
          "type": "bytes32"
        }
      ],
      "name": "nullifierHashes",
      "outputs": [
        {
          "internalType": "bool",
          "name": "",
          "type": "bool"
        }
      ],
      "payable": false,
      "stateMutability": "view",
      "type": "function"
    },
    {
      "constant": true,
      "inputs": [],
      "name": "operator",
      "outputs": [
        {
          "internalType": "address",
          "name": "",
          "type": "address"
        }
      ],
      "payable": false,
      "stateMutability": "view",
      "type": "function"
    },
    {
      "constant": true,
      "inputs": [
        {
          "internalType": "uint256",
          "name": "",
          "type": "uint256"
        }
      ],
      "name": "roots",
      "outputs": [
        {
          "internalType": "bytes32",
          "name": "",
          "type": "bytes32"
        }
      ],
      "payable": false,
      "stateMutability": "view",
      "type": "function"
    },
    {
      "constant": true,
      "inputs": [],
      "name": "token",
      "outputs": [
        {
          "internalType": "address",
          "name": "",
          "type": "address"
        }
      ],
      "payable": false,
      "stateMutability": "view",
      "type": "function"
    },
    {
      "constant": false,
      "inputs": [
        {
          "internalType": "address",
          "name": "_newVerifier",
          "type": "address"
        }
      ],
      "name": "updateVerifier",
      "outputs": [],
      "payable": false,
      "stateMutability": "nonpayable",
      "type": "function"
    },
    {
      "constant": true,
      "inputs": [],
      "name": "verifier",
      "outputs": [
        {
          "internalType": "contract IVerifier",
          "name": "",
          "type": "address"
        }
      ],
      "payable": false,
      "stateMutability": "view",
      "type": "function"
    },
    {
      "constant": false,
      "inputs": [
        {
          "internalType": "bytes",
          "name": "_proof",
          "type": "bytes"
        },
        {
          "internalType": "bytes32",
          "name": "_root",
          "type": "bytes32"
        },
        {
          "internalType": "bytes32",
          "name": "_nullifierHash",
          "type": "bytes32"
        },
        {
          "internalType": "address payable",
          "name": "_recipient",
          "type": "address"
        },
        {
          "internalType": "address payable",
          "name": "_relayer",
          "type": "address"
        },
        {
          "internalType": "uint256",
          "name": "_fee",
          "type": "uint256"
        },
        {
          "internalType": "uint256",
          "name": "_refund",
          "type": "uint256"
        }
      ],
      "name": "withdraw",
      "outputs": [],
      "payable": true,
      "stateMutability": "payable",
      "type": "function"
    },
    {
      "constant": true,
      "inputs": [
        {
          "internalType": "uint256",
          "name": "",
          "type": "uint256"
        }
      ],
      "name": "zeros",
      "outputs": [
        {
          "internalType": "bytes32",
          "name": "",
          "type": "bytes32"
        }
      ],
      "payable": false,
      "stateMutability": "view",
      "type": "function"
    }
  ],
  "bytecode": "0x60806040526000600360006101000a81548163ffffffff021916908363ffffffff1602179055506000600360046101000a81548163ffffffff021916908363ffffffff1602179055503480156200005557600080fd5b5060405162002a4438038062002a44833981810160405260a08110156200007b57600080fd5b810190808051906020019092919080519060200190929190805190602001909291908051906020019092919080519060200190929190505050848484848160008163ffffffff16116200011a576040517f08c379a0000000000000000000000000000000000000000000000000000000008152600401808060200182810382526027815260200180620029fb6027913960400191505060405180910390fd5b60208163ffffffff16106200017b576040517f08c379a000000000000000000000000000000000000000000000000000000000815260040180806020018281038252602281526020018062002a226022913960400191505060405180910390fd5b806000806101000a81548163ffffffff021916908363ffffffff16021790555060007f2fe54c60d3acabf3343a35b6eba15db4821b340f76e741e2249685ed4899af6c60001b9050600281908060018154018082558091505090600182039060005260206000200160009091929091909150555060018190806001815401808255809150509060018203906000526020600020016000909192909190915055506000600190505b6000809054906101000a900463ffffffff1663ffffffff168163ffffffff161015620002c2576200025a82836200043a60201b60201c565b915060028290806001815401808255809150509060018203906000526020600020016000909192909190915055506001829080600181540180825580915050906001820390600052602060002001600090919290919091505550808060010191505062000222565b50620002d581826200043a60201b60201c565b6004600060648110620002e457fe5b018190555050506001606860006101000a81548160ff0219169083151502179055506000831162000361576040517f08c379a0000000000000000000000000000000000000000000000000000000008152600401808060200182810382526025815260200180620029b56025913960400191505060405180910390fd5b83606c60006101000a81548173ffffffffffffffffffffffffffffffffffffffff021916908373ffffffffffffffffffffffffffffffffffffffff16021790555080606d60006101000a81548173ffffffffffffffffffffffffffffffffffffffff021916908373ffffffffffffffffffffffffffffffffffffffff160217905550826069819055505050505080606e60006101000a81548173ffffffffffffffffffffffffffffffffffffffff021916908373ffffffffffffffffffffffffffffffffffffffff1602179055505050505050620006ea565b60007f30644e72e131a029b85045b68181585d2833e84879b9709143e1f593f00000018360001c10620004d5576040517f08c379a00000000000000000000000000000000000000000000000000000000081526004018080602001828103825260208152602001807f5f6c6566742073686f756c6420626520696e7369646520746865206669656c6481525060200191505060405180910390fd5b7f30644e72e131a029b85045b68181585d2833e84879b9709143e1f593f00000018260001c1062000552576040517f08c379a0000000000000000000000000000000000000000000000000000000008152600401808060200182810382526021815260200180620029da6021913960400191505060405180910390fd5b60008360001c9050600080905073__$9780738a116369df5fe6eb1df74865bc0a$__63f47d33b583836040518363ffffffff1660e01b81526004018083815260200182815260200192505050604080518083038186803b158015620005b657600080fd5b505af4158015620005cb573d6000803e3d6000fd5b505050506040513d6040811015620005e257600080fd5b81019080805190602001909291908051906020019092919050505080925081935050507f30644e72e131a029b85045b68181585d2833e84879b9709143e1f593f0000001806200062e57fe5b8460001c8308915073__$9780738a116369df5fe6eb1df74865bc0a$__63f47d33b583836040518363ffffffff1660e01b81526004018083815260200182815260200192505050604080518083038186803b1580156200068d57600080fd5b505af4158015620006a2573d6000803e3d6000fd5b505050506040513d6040811015620006b957600080fd5b81019080805190602001909291908051906020019092919050505080925081935050508160001b9250505092915050565b6122bb80620006fa6000396000f3fe60806040526004361061014b5760003560e01c806397fc007c116100b6578063e5285dcc1161006f578063e5285dcc14610751578063e8295588146107a4578063ec732959146107f3578063f178e47c1461081e578063fc0c546a1461086d578063fc7e9c6f146108c45761014b565b806397fc007c146105465780639fa12d0b14610597578063b214faa514610672578063ba70f757146106a0578063c2b40ae4146106cb578063cd87a3b41461071a5761014b565b80634ecf518b116101085780634ecf518b146103b0578063570ca735146103e75780636d9833e31461043e578063839df945146104915780638bca6d16146104e457806390eeb02b1461050f5761014b565b806306394c9b1461015057806317cc915c146101a157806321a0adb6146101f45780632b7ac3f3146102d557806338bf282e1461032c578063414a37ba14610385575b600080fd5b34801561015c57600080fd5b5061019f6004803603602081101561017357600080fd5b81019080803573ffffffffffffffffffffffffffffffffffffffff1690602001909291905050506108fb565b005b3480156101ad57600080fd5b506101da600480360360208110156101c457600080fd5b81019080803590602001909291905050506109e5565b604051808215151515815260200191505060405180910390f35b6102d3600480360360e081101561020a57600080fd5b810190808035906020019064010000000081111561022757600080fd5b82018360208201111561023957600080fd5b8035906020019184600183028401116401000000008311171561025b57600080fd5b90919293919293908035906020019092919080359060200190929190803573ffffffffffffffffffffffffffffffffffffffff169060200190929190803573ffffffffffffffffffffffffffffffffffffffff1690602001909291908035906020019092919080359060200190929190505050610a05565b005b3480156102e157600080fd5b506102ea610eec565b604051808273ffffffffffffffffffffffffffffffffffffffff1673ffffffffffffffffffffffffffffffffffffffff16815260200191505060405180910390f35b34801561033857600080fd5b5061036f6004803603604081101561034f57600080fd5b810190808035906020019092919080359060200190929190505050610f12565b6040518082815260200191505060405180910390f35b34801561039157600080fd5b5061039a6111b8565b6040518082815260200191505060405180910390f35b3480156103bc57600080fd5b506103c56111dc565b604051808263ffffffff1663ffffffff16815260200191505060405180910390f35b3480156103f357600080fd5b506103fc6111f1565b604051808273ffffffffffffffffffffffffffffffffffffffff1673ffffffffffffffffffffffffffffffffffffffff16815260200191505060405180910390f35b34801561044a57600080fd5b506104776004803603602081101561046157600080fd5b8101908080359060200190929190505050611217565b604051808215151515815260200191505060405180910390f35b34801561049d57600080fd5b506104ca600480360360208110156104b457600080fd5b81019080803590602001909291905050506112b9565b604051808215151515815260200191505060405180910390f35b3480156104f057600080fd5b506104f96112d9565b6040518082815260200191505060405180910390f35b34801561051b57600080fd5b506105246112df565b604051808263ffffffff1663ffffffff16815260200191505060405180910390f35b34801561055257600080fd5b506105956004803603602081101561056957600080fd5b81019080803573ffffffffffffffffffffffffffffffffffffffff1690602001909291905050506112f5565b005b3480156105a357600080fd5b5061061b600480360360208110156105ba57600080fd5b81019080803590602001906401000000008111156105d757600080fd5b8201836020820111156105e957600080fd5b8035906020019184602083028401116401000000008311171561060b57600080fd5b90919293919293905050506113df565b6040518080602001828103825283818151815260200191508051906020019060200280838360005b8381101561065e578082015181840152602081019050610643565b505050509050019250505060405180910390f35b61069e6004803603602081101561068857600080fd5b810190808035906020019092919050505061147c565b005b3480156106ac57600080fd5b506106b561163c565b6040518082815260200191505060405180910390f35b3480156106d757600080fd5b50610704600480360360208110156106ee57600080fd5b810190808035906020019092919050505061166a565b6040518082815260200191505060405180910390f35b34801561072657600080fd5b5061072f611682565b604051808263ffffffff1663ffffffff16815260200191505060405180910390f35b34801561075d57600080fd5b5061078a6004803603602081101561077457600080fd5b8101908080359060200190929190505050611687565b604051808215151515815260200191505060405180910390f35b3480156107b057600080fd5b506107dd600480360360208110156107c757600080fd5b81019080803590602001909291905050506116b1565b6040518082815260200191505060405180910390f35b3480156107ff57600080fd5b506108086116d2565b6040518082815260200191505060405180910390f35b34801561082a57600080fd5b506108576004803603602081101561084157600080fd5b81019080803590602001909291905050506116f6565b6040518082815260200191505060405180910390f35b34801561087957600080fd5b50610882611717565b604051808273ffffffffffffffffffffffffffffffffffffffff1673ffffffffffffffffffffffffffffffffffffffff16815260200191505060405180910390f35b3480156108d057600080fd5b506108d961173d565b604051808263ffffffff1663ffffffff16815260200191505060405180910390f35b606d60009054906101000a900473ffffffffffffffffffffffffffffffffffffffff1673ffffffffffffffffffffffffffffffffffffffff163373ffffffffffffffffffffffffffffffffffffffff16146109a1576040517f08c379a00000000000000000000000000000000000000000000000000000000081526004018080602001828103825260258152602001806122626025913960400191505060405180910390fd5b80606d60006101000a81548173ffffffffffffffffffffffffffffffffffffffff021916908373ffffffffffffffffffffffffffffffffffffffff16021790555050565b606a6020528060005260406000206000915054906101000a900460ff1681565b606860009054906101000a900460ff16610a87576040517f08c379a000000000000000000000000000000000000000000000000000000000815260040180806020018281038252601f8152602001807f5265656e7472616e637947756172643a207265656e7472616e742063616c6c0081525060200191505060405180910390fd5b6000606860006101000a81548160ff021916908315150217905550606954821115610b1a576040517f08c379a000000000000000000000000000000000000000000000000000000000815260040180806020018281038252601a8152602001807f4665652065786365656473207472616e736665722076616c756500000000000081525060200191505060405180910390fd5b606a600086815260200190815260200160002060009054906101000a900460ff1615610bae576040517f08c379a000000000000000000000000000000000000000000000000000000000815260040180806020018281038252601f8152602001807f546865206e6f746520686173206265656e20616c7265616479207370656e740081525060200191505060405180910390fd5b610bb786611217565b610c29576040517f08c379a000000000000000000000000000000000000000000000000000000000815260040180806020018281038252601c8152602001807f43616e6e6f742066696e6420796f7572206d65726b6c6520726f6f740000000081525060200191505060405180910390fd5b606c60009054906101000a900473ffffffffffffffffffffffffffffffffffffffff1673ffffffffffffffffffffffffffffffffffffffff1663695ef6f989896040518060c001604052808b60001c81526020018a60001c81526020018973ffffffffffffffffffffffffffffffffffffffff1681526020018873ffffffffffffffffffffffffffffffffffffffff168152602001878152602001868152506040518463ffffffff1660e01b8152600401808060200183600660200280838360005b83811015610d06578082015181840152602081019050610ceb565b505050509050018281038252858582818152602001925080828437600081840152601f19601f820116905080830192505050945050505050602060405180830381600087803b158015610d5857600080fd5b505af1158015610d6c573d6000803e3d6000fd5b505050506040513d6020811015610d8257600080fd5b8101908080519060200190929190505050610e05576040517f08c379a00000000000000000000000000000000000000000000000000000000081526004018080602001828103825260168152602001807f496e76616c69642077697468647261772070726f6f660000000000000000000081525060200191505060405180910390fd5b6001606a600087815260200190815260200160002060006101000a81548160ff021916908315150217905550610e3d84848484611753565b8273ffffffffffffffffffffffffffffffffffffffff167fe9e508bad6d4c3227e881ca19068f099da81b5164dd6d62b2eaf1e8bc6c34931858785604051808473ffffffffffffffffffffffffffffffffffffffff1673ffffffffffffffffffffffffffffffffffffffff168152602001838152602001828152602001935050505060405180910390a26001606860006101000a81548160ff0219169083151502179055505050505050505050565b606c60009054906101000a900473ffffffffffffffffffffffffffffffffffffffff1681565b60007f30644e72e131a029b85045b68181585d2833e84879b9709143e1f593f00000018360001c10610fac576040517f08c379a00000000000000000000000000000000000000000000000000000000081526004018080602001828103825260208152602001807f5f6c6566742073686f756c6420626520696e7369646520746865206669656c6481525060200191505060405180910390fd5b7f30644e72e131a029b85045b68181585d2833e84879b9709143e1f593f00000018260001c10611027576040517f08c379a00000000000000000000000000000000000000000000000000000000081526004018080602001828103825260218152602001806121c16021913960400191505060405180910390fd5b60008360001c9050600080905073__$9780738a116369df5fe6eb1df74865bc0a$__63f47d33b583836040518363ffffffff1660e01b81526004018083815260200182815260200192505050604080518083038186803b15801561108a57600080fd5b505af415801561109e573d6000803e3d6000fd5b505050506040513d60408110156110b457600080fd5b81019080805190602001909291908051906020019092919050505080925081935050507f30644e72e131a029b85045b68181585d2833e84879b9709143e1f593f0000001806110ff57fe5b8460001c8308915073__$9780738a116369df5fe6eb1df74865bc0a$__63f47d33b583836040518363ffffffff1660e01b81526004018083815260200182815260200192505050604080518083038186803b15801561115d57600080fd5b505af4158015611171573d6000803e3d6000fd5b505050506040513d604081101561118757600080fd5b81019080805190602001909291908051906020019092919050505080925081935050508160001b9250505092915050565b7f30644e72e131a029b85045b68181585d2833e84879b9709143e1f593f000000181565b6000809054906101000a900463ffffffff1681565b606d60009054906101000a900473ffffffffffffffffffffffffffffffffffffffff1681565b60008060001b82141561122d57600090506112b4565b6000600360009054906101000a900463ffffffff1690505b60048163ffffffff166064811061125857fe5b015483141561126b5760019150506112b4565b60008163ffffffff16141561127f57606490505b808060019003915050600360009054906101000a900463ffffffff1663ffffffff168163ffffffff1614156112455760009150505b919050565b606b6020528060005260406000206000915054906101000a900460ff1681565b60695481565b600360009054906101000a900463ffffffff1681565b606d60009054906101000a900473ffffffffffffffffffffffffffffffffffffffff1673ffffffffffffffffffffffffffffffffffffffff163373ffffffffffffffffffffffffffffffffffffffff161461139b576040517f08c379a00000000000000000000000000000000000000000000000000000000081526004018080602001828103825260258152602001806122626025913960400191505060405180910390fd5b80606c60006101000a81548173ffffffffffffffffffffffffffffffffffffffff021916908373ffffffffffffffffffffffffffffffffffffffff16021790555050565b6060828290506040519080825280602002602001820160405280156114135781602001602082028038833980820191505090505b50905060008090505b838390508110156114755761144284848381811061143657fe5b90506020020135611687565b1561146857600182828151811061145557fe5b6020026020010190151590811515815250505b808060010191505061141c565b5092915050565b606860009054906101000a900460ff166114fe576040517f08c379a000000000000000000000000000000000000000000000000000000000815260040180806020018281038252601f8152602001807f5265656e7472616e637947756172643a207265656e7472616e742063616c6c0081525060200191505060405180910390fd5b6000606860006101000a81548160ff021916908315150217905550606b600082815260200190815260200160002060009054906101000a900460ff1615611590576040517f08c379a00000000000000000000000000000000000000000000000000000000081526004018080602001828103825260218152602001806122116021913960400191505060405180910390fd5b600061159b82611894565b90506001606b600084815260200190815260200160002060006101000a81548160ff0219169083151502179055506115d1611aed565b817fa945e51eec50ab98c161376f0db4cf2aeba3ec92755fe2fcd388bdbbb80ff1968242604051808363ffffffff1663ffffffff1681526020018281526020019250505060405180910390a2506001606860006101000a81548160ff02191690831515021790555050565b60006004600360009054906101000a900463ffffffff1663ffffffff166064811061166357fe5b0154905090565b6004816064811061167757fe5b016000915090505481565b606481565b6000606a600083815260200190815260200160002060009054906101000a900460ff169050919050565b600281815481106116be57fe5b906000526020600020016000915090505481565b7f2fe54c60d3acabf3343a35b6eba15db4821b340f76e741e2249685ed4899af6c81565b6001818154811061170357fe5b906000526020600020016000915090505481565b606e60009054906101000a900473ffffffffffffffffffffffffffffffffffffffff1681565b600360049054906101000a900463ffffffff1681565b8034146117ab576040517f08c379a000000000000000000000000000000000000000000000000000000000815260040180806020018281038252603081526020018061216a6030913960400191505060405180910390fd5b6117b9848360695403611b55565b60008211156117cd576117cc8383611b55565b5b600081111561188e5760008473ffffffffffffffffffffffffffffffffffffffff168260405180600001905060006040518083038185875af1925050503d8060008114611836576040519150601f19603f3d011682016040523d82523d6000602084013e61183b565b606091505b505090508061188c578373ffffffffffffffffffffffffffffffffffffffff166108fc839081150290604051600060405180830381858888f1935050505015801561188a573d6000803e3d6000fd5b505b505b50505050565b600080600360049054906101000a900463ffffffff1690506000809054906101000a900463ffffffff1663ffffffff16600263ffffffff160a63ffffffff168163ffffffff161415611931576040517f08c379a000000000000000000000000000000000000000000000000000000000815260040180806020018281038252602f815260200180612111602f913960400191505060405180910390fd5b6001600360048282829054906101000a900463ffffffff160192506101000a81548163ffffffff021916908363ffffffff160217905550600083905060008060008090505b6000809054906101000a900463ffffffff1663ffffffff168163ffffffff161015611a5457600060028663ffffffff16816119ad57fe5b0663ffffffff161415611a045783925060028163ffffffff16815481106119d057fe5b906000526020600020015491508360018263ffffffff16815481106119f157fe5b9060005260206000200181905550611a28565b60018163ffffffff1681548110611a1757fe5b906000526020600020015492508391505b611a328383610f12565b935060028563ffffffff1681611a4457fe5b0494508080600101915050611976565b50606463ffffffff166001600360009054906101000a900463ffffffff160163ffffffff1681611a8057fe5b06600360006101000a81548163ffffffff021916908363ffffffff160217905550826004600360009054906101000a900463ffffffff1663ffffffff1660648110611ac757fe5b01819055506001600360049054906101000a900463ffffffff1603945050505050919050565b60003414611b46576040517f08c379a00000000000000000000000000000000000000000000000000000000081526004018080602001828103825260308152602001806122326030913960400191505060405180910390fd5b611b533330606954611e18565b565b60006060606e60009054906101000a900473ffffffffffffffffffffffffffffffffffffffff1673ffffffffffffffffffffffffffffffffffffffff1663a9059cbb8585604051602401808373ffffffffffffffffffffffffffffffffffffffff1673ffffffffffffffffffffffffffffffffffffffff168152602001828152602001925050506040516020818303038152906040529060e01b6020820180517bffffffffffffffffffffffffffffffffffffffffffffffffffffffff83818316178352505050506040518082805190602001908083835b60208310611c505780518252602082019150602081019050602083039250611c2d565b6001836020036101000a0380198251168184511680821785525050505050509050019150506000604051808303816000865af19150503d8060008114611cb2576040519150601f19603f3d011682016040523d82523d6000602084013e611cb7565b606091505b509150915081611d2f576040517f08c379a00000000000000000000000000000000000000000000000000000000081526004018080602001828103825260118152602001807f6e6f7420656e6f75676820746f6b656e7300000000000000000000000000000081525060200191505060405180910390fd5b600081511115611e12576020815114611d93576040517f08c379a000000000000000000000000000000000000000000000000000000000815260040180806020018281038252602a815260200180612140602a913960400191505060405180910390fd5b808060200190516020811015611da857600080fd5b8101908080519060200190929190505050915081611e11576040517f08c379a000000000000000000000000000000000000000000000000000000000815260040180806020018281038252602781526020018061219a6027913960400191505060405180910390fd5b5b50505050565b60006060606e60009054906101000a900473ffffffffffffffffffffffffffffffffffffffff1673ffffffffffffffffffffffffffffffffffffffff166323b872dd868686604051602401808473ffffffffffffffffffffffffffffffffffffffff1673ffffffffffffffffffffffffffffffffffffffff1681526020018373ffffffffffffffffffffffffffffffffffffffff1673ffffffffffffffffffffffffffffffffffffffff16815260200182815260200193505050506040516020818303038152906040529060e01b6020820180517bffffffffffffffffffffffffffffffffffffffffffffffffffffffff83818316178352505050506040518082805190602001908083835b60208310611f475780518252602082019150602081019050602083039250611f24565b6001836020036101000a0380198251168184511680821785525050505050509050019150506000604051808303816000865af19150503d8060008114611fa9576040519150601f19603f3d011682016040523d82523d6000602084013e611fae565b606091505b509150915081612026576040517f08c379a00000000000000000000000000000000000000000000000000000000081526004018080602001828103825260198152602001807f6e6f7420656e6f75676820616c6c6f77656420746f6b656e730000000000000081525060200191505060405180910390fd5b60008151111561210957602081511461208a576040517f08c379a000000000000000000000000000000000000000000000000000000000815260040180806020018281038252602a815260200180612140602a913960400191505060405180910390fd5b80806020019051602081101561209f57600080fd5b8101908080519060200190929190505050915081612108576040517f08c379a000000000000000000000000000000000000000000000000000000000815260040180806020018281038252602f8152602001806121e2602f913960400191505060405180910390fd5b5b505050505056fe4d65726b6c6520747265652069732066756c6c2e204e6f206d6f7265206c656166732063616e20626520616464656464617461206c656e6774682073686f756c64206265206569746865722030206f72203332206279746573496e636f727265637420726566756e6420616d6f756e742072656365697665642062792074686520636f6e74726163746e6f7420656e6f75676820746f6b656e732e20546f6b656e2072657475726e732066616c73652e5f72696768742073686f756c6420626520696e7369646520746865206669656c646e6f7420656e6f75676820616c6c6f77656420746f6b656e732e20546f6b656e2072657475726e732066616c73652e54686520636f6d6d69746d656e7420686173206265656e207375626d69747465644554482076616c756520697320737570706f73656420746f206265203020666f7220455243323020696e7374616e63654f6e6c79206f70657261746f722063616e2063616c6c20746869732066756e6374696f6e2ea265627a7a72315820fc8f9552079d6f4ff1dfd84c0679de5d8335442e223922e9a590175cbda560ec64736f6c6343000511003264656e6f6d696e6174696f6e2073686f756c642062652067726561746572207468616e20305f72696768742073686f756c6420626520696e7369646520746865206669656c645f747265654c6576656c732073686f756c642062652067726561746572207468616e207a65726f5f747265654c6576656c732073686f756c64206265206c657373207468616e203332",
  "linkReferences": {
    "contracts/MerkleTreeWithHistory.sol": {
      "Hasher": [
        {
          "length": 20,
          "start": 1377
        },
        {
          "length": 20,
          "start": 1592
        },
        {
          "length": 20,
          "start": 5936
        },
        {
          "length": 20,
          "start": 6147
        }
      ]
    }
  },
  "deployedLinkReferences": {
    "contracts/MerkleTreeWithHistory.sol": {
      "Hasher": [
        {
          "length": 20,
          "start": 4150
        },
        {
          "length": 20,
          "start": 4361
        }
      ]
    }
  }
}